:020000040800F2
:10000000B872002075020008BD300008632A00089D
:10001000B93000085F060008355D000800000000E8
:10002000000000000000000000000000213800086F
:1000300005070008000000009B360008353800085E
:100040008F0200088F0200088F0200088F0200084C
:100050008F0200088F0200088F0200088F0200083C
:100060008F0200088F0200088F0200088F0200082C
:100070008F0200088F0200088F0200088F0200081C
:100080008F0200088F0200088F02000800000000A5
:100090000000000000000000000000008F020008C7
:1000A0008F0200088F0200088F0200088F020008EC
:1000B0000D3900088F0200088F0200088F02000827
:1000C0008F0200088F0200088F0200088F020008CC
:1000D0008F0200088F0200088F0200080000000055
:1000E000090700088F0200088F02000800000000C6
:1000F0000000000000000000000000008F02000867
:10010000000000008F0200088F0200088F02000824
:1001100000000000000000000000000000000000DF
:100120008F0200088F0200088F0200088F0200086B
:100130008F02000800000000000000000000000026
:10014000000000000000000000000000F53300087F
:100150008F0200088F0200088F0200088F0200083B
:100160008F0200088F02000800000000000000005D
:10017000000000000000000000000000000000007F
:10018000000000008F0200080000000000000000D6
:100190008F02000800F002F800F05CF80AA090E876
:1001A000000C82448344AAF10107DA4501D100F032
:1001B00051F8AFF2090EBAE80F0013F0010F18BFA3
:1001C000FB1A43F001031847D81B0300F81B030078
:1001D0000A444FF0000C10F8013B13F0070408BF6D
:1001E00010F8014B1D1108BF10F8015B641E05D00B
:1001F00010F8016B641E01F8016BF9D113F0080FC0
:100200001EBF10F8014BAD1C0C1B09D16D1E58BF51
:1002100001F801CBFAD505E014F8016B01F8016B88
:100220006D1EF9D59142D6D37047000000230024FB
:1002300000250026103A28BF78C1FBD8520728BFF6
:1002400030C148BF0B6070471FB530F0E8FA1FBDE2
:1002500010B510BD00F0C9F91146FFF7F5FF2AF0FF
:100260004BFF00F0E7F903B4FFF7F2FF03BC00F027
:10027000EFF900000948804709480047FEE7FEE71C
:10028000FEE7FEE7FEE7FEE7FEE7FEE7FEE7FEE746
:1002900004480549054A064B70470000F938000834
:1002A00095010008B8680020B8720020B86A0020E4
:1002B000B86A002053EA020C00F069802DE9F04B87
:1002C0004FF00006002B1FBFB3FA83F503FA05F4C5
:1002D00024FA05F65E4012BF1643B2FA82F502FA1E
:1002E00005F4C5F120051EBF22FA05FC44EA0C0402
:1002F000203556EA044C4FEA144418BF641C4FF0F2
:1003000000084FF00009904271EB030C39D300292B
:1003100019BFB1FA81F701FA07F6B0FA80F700FACF
:1003200007F6C7F120071EBF20FA07FC46EA0C06B5
:100330002037B6FBF4FCA7EB0507103F07F01F0BB7
:10034000CBF120060CFA0BFB2CFA06F644BFB346A1
:100350000026202FA4BF5E464FF0000B5BEA060C80
:1003600008BF4FF0010B19EB0B09ABFB027C48EB0C
:100370000608C01B06FB02CC0BFB03CC71EB0C0187
:10038000C1E70B46024641464846BDE8F08B13B52F
:100390004FF000004FF00001AFF30080BDE81C40BB
:1003A000704740EA0103024630B59B0710D14FF079
:1003B000013400E008C208C91D1B9D4315EAC41F93
:1003C000F8D013F0FF0102F8011B0DD01B0AF8E76B
:1003D00011F8013B002B02F8013B05D011F8013B5D
:1003E000002B02F8013BF3D130BD10B5431C02E0F5
:1003F00010F8011B71B18107FAD14FF0013202C828
:100400008C1A8C4314EAC211F9D0C01A0A0603D020
:10041000C01E10BDC01A10BD0A0401D0801E10BD40
:100420000902FCD0401E10BD032A40F2308010F0BB
:10043000030C00F0158011F8013BBCF1020F62447F
:1004400098BF11F801CB00F8013B38BF11F8013B10
:10045000A2F1040298BF00F801CB38BF00F8013BBD
:1004600011F0030300F02580083AC0F0088051F82D
:10047000043B083A51F804CBA0E80810F5E7121D38
:100480005CBF51F8043B40F8043BAFF30080D20757
:1004900024BF11F8013B11F801CB48BF11F8012B23
:1004A00024BF00F8013B00F801CB48BF00F8012B46
:1004B000704710B5203AC0F00B80B1E81850203AD0
:1004C000A0E81850B1E81850A0E81850BFF4F5AFF4
:1004D0005FEA027C24BFB1E81850A0E8185044BF7E
:1004E00018C918C0BDE810405FEA827C24BF51F8EB
:1004F000043B40F8043B08BF7047D20728BF31F8DF
:10050000023B48BF11F8012B28BF20F8023B48BF2F
:1005100000F8012B70474FF0000200B513469446D7
:100520009646203922BFA0E80C50A0E80C50B1F14B
:100530002001BFF4F7AF090728BFA0E80C5048BF5F
:100540000CC05DF804EB890028BF40F8042B08BFFD
:10055000704748BF20F8022B11F0804F18BF00F8F9
:10056000012B70474FF0013C50F8042B51F8043B2D
:100570009A4221D1A2EB0C03934313EACC1317D177
:1005800050F8042B51F8043B9A4215D1A2EB0C030E
:10059000934313EACC130BD150F8042B51F8043BCE
:1005A0009A4209D1A2EB0C03934313EACC13DBD09C
:1005B0004FF00000704700BFD01A01BAB1FA81F1C4
:1005C00001F0180122FA01F0CB40C1F12001DBB2A9
:1005D000C0B2C01A2CFA01F3D11A914311EAC31127
:1005E000E6D17047704770477047754600F02CF8A9
:1005F000AE4605006946534620F00700854618B010
:1006000020B5FFF745FEBDE820404FF000064FF053
:1006100000074FF000084FF0000B21F00701AC4637
:10062000ACE8C009ACE8C009ACE8C009ACE8C00956
:100630008D46704710B50446AFF300802046BDE8F4
:100640001040FFF710BE00000048704754680020BB
:1006500001491820ABBEFEE726000200704700BF2C
:10066000FEE7000010B50346042B15D007DC7BB174
:10067000012B0ED0022B0DD0032B15D10BE0202B1C
:100680000BD0212B0AD0222B09D0232B0CD10AE02E
:100690000BE00AE009E008E007E006E005E00120E1
:1006A000034C207001E000E000BF00BF002010BD3F
:1006B0005C0400200020704710B500220449054862
:1006C00003F012FB0449034803F003FB002010BDB4
:1006D000F810002040080020100D002070B50446DE
:1006E0000D462146034803F0F4FA024803F0CCFA21
:1006F000002070BD4008002010B503460C460021C4
:10070000084610BD7047000010B51648006800F498
:10071000005030B34FF400501249086001461248AF
:1007200000F07AF910B90120104908704FF4005117
:100730000D4800F071F9012813D10C48007880B100
:1007400000200B4908700B4908700B4908700B49D1
:10075000086001200A49087000200449087009490E
:10076000087010BD143C0140000402400504002044
:1007700003040020020400200104002008040020DB
:10078000040400200604002000B587B000BF00204C
:1007900001900F48006840F002000D4908600846CB
:1007A000006800F00200019000BF00BF4FF400504D
:1007B0000290084803900120049002A9064800F026
:1007C0003FF800221146282000F0C8F907B000BD0C
:1007D00030380240000031100004024072B600BF01
:1007E000FEE7000070B50A480468001D0568001D9A
:1007F0000668344454B108220649204602F02EFB14
:10080000042204491031284602F028FB70BD000084
:10081000107AFF1F4204002070B5044600F014F95E
:1008200006462546681C10B104480078054400BF00
:1008300000F00AF9801BA842FAD370BD7C040020A6
:10084000F8B502460B460025002400200021CFE029
:10085000012606FA01F51E6806EA0504AC4275D1C8
:100860001E7906F00306012E04D01E7906F0030659
:10087000022E13D190684F000326BE40B0434F00B4
:10088000DE68BE4030439060506801268E40B04321
:100890001E79C6F300168E40304350601E7906F074
:1008A0000306032E09D0D0684F000326BE40B04394
:1008B0004F009E68BE403043D0601E7906F00306AC
:1008C000022E13D1CF0802F1200656F827004E075A
:1008D000F70E0F26BE40B0434F07FF0E1E69BE4005
:1008E0003043CF0802F1200646F8270010684F0079
:1008F0000326BE40B0431E7906F003064F00BE40FB
:10090000304310605E6806F08056B6F1805F6ED1AD
:1009100000BF00260096384E366846F48046364FB3
:100920003E603E46366806F48046009600BF00BF33
:10093000324E8F0856F827008E07370F0F26BE401D
:10094000B0432F4EB24202D1002615E04FE02D4EAB
:10095000B24201D101260FE02B4EB24201D1022654
:100960000AE02A4EB24201D1032605E0284EB242E7
:1009700001D1042600E007268F073F0FBE40304319
:100980001E4E8F0846F82700224E3068A0435E684E
:1009900006F48036B6F5803F00D120431D4E30600E
:1009A000361D3068A0435E6806F40036B6F5003F99
:1009B00000D12043174E361D3060361D3068A043ED
:1009C0005E6806F48016B6F5801F00D12043114EF4
:1009D00008363060361D3068A0435E6806F40016A5
:1009E000B6F5001F00D120430A4E0C363060491C7A
:1009F0001029FFF42DAFF8BD4438024008380140FB
:100A0000000002400004024000080240000C0240C6
:100A100000100240003C0140024613690B400BB13C
:100A2000012000E00020704710B5426921EA02036E
:100A300002EA010443EA0443836110BD0AB1816103
:100A400001E00B04836170470148006870470000B3
:100A500074040020034800680349097808440149E8
:100A600008607047740400207C04002010B50D4815
:100A7000006840F400700B4908600846006840F4C4
:100A8000806008600846006840F4807008600320B9
:100A900000F0A2F80F2000F007F800F02BF800207B
:100AA00010BD0000003C024070B504460E480078BE
:100AB0004FF47A71B1FBF0F00C490968B1FBF0F525
:100AC000284601F028FD08B1012070BD102C07D286
:100AD00000222146501E00F041F80548046001E064
:100AE0000120F2E70020F0E77C04002080040020D1
:100AF0007804002008B500BF002000900E48006870
:100B000040F480400C4908600846006800F48040CA
:100B1000009000BF00BF00BF00200090081F0068C9
:100B200040F08050091F08600846006800F08050BF
:100B3000009000BF00BF08BD44380240014608468F
:100B4000002809DB00F01F0301229A4043099B00A3
:100B500003F1E023C3F8002100BF70472DE9F05FE7
:100B600080460D461646002705F0E6F8074639464A
:100B70002A46334601F00700C0F1070ABAF1040F14
:100B800002D94FF0040A01E0C0F1070AD14600F192
:100B9000040ABAF1070F02D24FF0000A01E0A0F1F7
:100BA000030AD4464FF0010A0AFA09FAAAF1010A27
:100BB0000AEA020A0AFA0CFA4FF0010B0BFA0CFBD4
:100BC000ABF1010B0BEA030B4AEA0B04214640464A
:100BD00005F0BAF8BDE8F09F00BF00F00702064B31
:100BE00019684FF6FF031940044B0B4343EA0221F7
:100BF000014B196000BF70470CED00E00000FA05E2
:100C0000704702461068416200207047F0B5034605
:100C100015461868446A21B944EA05401E68B06266
:100C200019E01868806A04EB1044002208E0186894
:100C300000F5827050F8220004EB1044501CC2B240
:100C4000481E9042F3D844EA0547186800F58270C0
:100C50004E1E40F826700020F0BD10B50446D4F8B2
:100C6000040403F091FC10BD70B504460D46C5EBBD
:100C7000C50304F13C0101EB8301CA682946D4F89D
:100C8000040403F0C9FB70BD70B504460D46C5EB06
:100C9000C50304F5FE7101EB8301CA682946D4F847
:100CA000040403F02AFC70BD10B50446D4F8040413
:100CB00003F06DFC10BD70B504460E4606F08000D2
:100CC00080280AD106F00F00C0EBC00104F13C00FF
:100CD00000EB81050120687009E006F00F00C0EB11
:100CE000C00104F5FE7000EB81050020687006F07D
:100CF0000F00287000BF94F8BC03012801D1022026
:100D000070BD012084F8BC0300BF2946206804F0B0
:100D10008BF900BF002084F8BC0300BF00BFEFE7E1
:100D200070B504460E4606F00F006168884201D98E
:100D3000012070BD06F0800080280AD106F00F0067
:100D4000C0EBC00104F13C0000EB8105012068709C
:100D500009E006F00F00C0EBC00104F5FE7000EBE7
:100D60008105002068700020A87006F00F00287030
:100D700000BF94F8BC03012801D10220D9E701206B
:100D800084F8BC0300BF2946206804F033FC00BF90
:100D9000002084F8BC0300BF00BFCAE7024601F090
:100DA0000F00C0EBC00302F5FE7000EB830080690A
:100DB00070472DE9F04705460E4690461F464FF016
:100DC000000906F0800080280AD106F00F00C0EB71
:100DD000C00105F13C0000EB81040120607009E0D6
:100DE00006F00F00C0EBC00105F5FE7000EB8104BA
:100DF0000020607006F00F002070C4F80880E770D3
:100E0000607808B12078E080022F01D100202071A5
:100E100000BF95F8BC03012802D10220BDE8F0878D
:100E2000012085F8BC0300BF2146286804F018F8AB
:100E300000BF002085F8BC0300BF4846EEE72DE95F
:100E4000F04104460E461746984606F00F00C0EBE8
:100E5000C00104F5FE7000EB8105EF60C5F8148059
:100E60000020A861687006F00F0028702069012832
:100E700000D12F6106F00F0028B9227C2946206896
:100E800004F094FA04E0227C2946206804F046FC31
:100E90000020BDE8F08170B504460D4605F00F0056
:100EA0006168884201D9012070BD05F0800080286A
:100EB0000AD105F00F00C0EBC00104F13C0000EBCB
:100EC00081060120707007E0C5EBC50104F5FE70D6
:100ED00000EB8106002070700120B07005F00F005B
:100EE000307000BF94F8BC03012801D10220DBE779
:100EF000012084F8BC0300BF3146206804F0C1FB28
:100F000005F00F0028B9217C04F57172206804F007
:100F100039FB00BF002084F8BC0300BF00BFC3E75B
:100F20002DE9F04104460E461746984606F00F009C
:100F3000C0EBC00104F13C0000EB8105EF60C5F897
:100F400014800020A8610120687006F00F0028704E
:100F50002069012800D12F6106F00F0028B9227CFA
:100F60002946206804F022FA04E0227C2946206801
:100F700004F0D4FB0020BDE8F0812DE9FE4F0446CB
:100F800020680290029D206804F0B3FD00287DD106
:100F9000206804F0EDFD08B9BDE8FE8F206804F07C
:100FA000E7FD00F00200022805D12068406900F04A
:100FB000020021684861206804F0DAFD00F01000AA
:100FC000102846D12068806920F0100021688861CF
:100FD0000298D0F8209009F00F00C0EBC00104F592
:100FE000FE7000EB810BC9F3434002281AD147F68B
:100FF000F07009EA000030B3C9F30A12DBF80C10F4
:10100000029804F0BAFDC9F30A11DBF80C00084499
:10101000CBF80C00C9F30A11DBF818000844CBF830
:10102000180010E0C9F3434006280CD1082204F54B
:101030007171029804F0A1FDC9F30A11DBF81800E0
:101040000844CBF818002068806940F0100021683F
:101050008861206804F08CFD00F40020B0F5002FBA
:1010600052D10026206804F053FD824649E00AF080
:101070000100E8B3F1B2206804F06DFD804608F08D
:10108000010058B1012105F5306000E021E200EBDC
:10109000461081603146204602F0E6F908F008006B
:1010A000082809D1082105F5306000EB4610816061
:1010B0003146204602F0A6F908F01000102805D1AC
:1010C000102105F5306000EB4610816008F020002B
:1010D000202805D1202105F5306000EB4610816005
:1010E00008F40050B0F5005F08D14FF4005100E063
:1010F00004E005F5306000EB46108160761C4FEA95
:101100005A0ABAF1000FB2D1206804F031FD00F4A0
:101110008020B0F5802F7ED1206804F0EFFC82465D
:10112000002683E00AF0010000287CD0F1B220689C
:1011300004F0F8FC804608F00100F0B306F00F015F
:1011400001208840019040F634004159019821EA7D
:10115000000040F634014851012105F5106000EB14
:10116000461081602069012824D1C6EBC60104F134
:101170003C0000EB8100C6EBC602C16804F13C00F4
:1011800000EB820080680144C6EBC60204F13C001B
:1011900000EB8200C1606EB9C6EBC60104F13C00F1
:1011A00000EB8100406928B904F5717201212068C3
:1011B00004F0E8F9F1B2204600E001E0FFF754FD49
:1011C00008F00800082805D1082105F5106000EB9B
:1011D0004610816008F01000102805D1102105F597
:1011E000106000EB4610816008F04000402805D1F7
:1011F000402105F5106000EB4610816008F0020008
:10120000022805D1022105F5106000EB461081602F
:1012100008F0800001E00DE005E0802803D13146B0
:10122000204602F0DFF9761C4FEA5A0ABAF1000FA5
:101230007FF478AF206804F09BFC00F00040B0F130
:10124000004F1CD140F60400405920F0010140F647
:101250000400415194F8F403012807D1002084F8D8
:10126000F40300212046FFF7CBFC02E0204600F00B
:101270005DFA2068406900F00040216848612068FC
:1012800004F076FC00F40060B0F5006F0ED140F67B
:101290000800405900F0010010B1204600F09EFA0D
:1012A0002068406900F4006021684861206804F00B
:1012B0005FFC00F48050B0F5805F7DD140F6040003
:1012C000405920F0010140F60400415110212068EE
:1012D00004F0E4FB00273EE04FF67F3105F5106097
:1012E00000EB4710816005F5106000EB47100068C7
:1012F00020F4001105F5106000EB4710016005F5C2
:10130000106000EB4710006840F0006105F51060C8
:1013100000EB471001604FF67F3105F5306000EBC0
:101320004710816005F5306000EB4710006820F43D
:10133000001105F5306000EB4710016005F53060E5
:1013400000EB4710006840F0006105F5306000EBED
:10135000471001607F1C6068B842BDD840F61C0091
:10136000405940F0011140F61C004151206B70B112
:10137000D5F8840840F00B01C5F8841840F6440005
:10138000405940F00B0140F6440041510FE040F657
:101390001400405942F22B01084340F61401485111
:1013A000081F405940F00B014FF401604151D5F83E
:1013B000000820F4FE6000E00DE0C5F80008217C84
:1013C00004F57172206804F0DDF82068406900F4CB
:1013D000805021684861206804F0CAFB00F4005086
:1013E000B0F5005F17D1206803F0A2FD206804F07B
:1013F0006DFBE06000F0A8FB0090227B2068009964
:1014000004F006FC204600F07FF92068406900F4F3
:10141000005021684861206804F0AAFB00F0080031
:10142000082808D1204600F088F92068406900F0BB
:10143000080021684861206804F09AFB00F48010DD
:10144000B0F5801F0AD100263146204600F043F84F
:101450002068406900F4801021684861206804F029
:1014600087FB00F40010B0F5001F0AD100263146BA
:10147000204600F039F82068406900F40010216827
:101480004861206804F074FB00F08040B0F1804FA8
:1014900008D12046FFF7E1FB2068406900F080405A
:1014A00021684861206804F063FB00F00400042810
:1014B0000FD12068D0F8049009F00400042802D16C
:1014C0002046FFF7F1FB2068406840EA09002168E8
:1014D000486000BF60E570B504460D462946D4F863
:1014E000040403F0BDF870BD70B504460D462946EE
:1014F000D4F8040403F0CCF870BD70B58AB004468B
:1015000014B901200AB070BD266894F8BD0328B94B
:10151000002084F8BC03204600F0A2F8032084F8E1
:10152000BD03F06B00F4807008B9002121612068D0
:1015300003F034FF282204F110016846FEF7B9FFDA
:1015400094E80F0003F008FD20B1022084F8BD03E9
:101550000120D7E70021206804F020FB002531E0BE
:101560000121C5EBC50204F13C0000EB8200417093
:10157000C5EBC50104F13C0000F82150C5EBC501E5
:1015800000EB8100C5800021C5EBC50204F13C00E1
:1015900000EB8200C170C5EBC50204F13C0000EB1A
:1015A00082008160C5EBC50204F13C0000EB8200C3
:1015B000C160C5EBC50204F13C0000EB8200416153
:1015C000681CC5B26068A842CAD800252AE000217C
:1015D000C5EBC50204F5FE7000EB82004170C5EB5F
:1015E000C50104F5FE7000F821500021C5EBC502CD
:1015F00000EB8200C170C5EBC50204F5FE7000EB84
:1016000082008160C5EBC50204F5FE7000EB82002C
:10161000C160C5EBC50204F5FE7000EB82004161BC
:10162000681CC5B26068A842D1D8282204F1100114
:101630006846FEF73EFF94E80F0003F0BFFD20B1BF
:10164000022084F8BD0301205CE7002084F8380004
:10165000012084F8BD03206803F09EFD002051E7BF
:1016600010B586B00446142101A8FEF754FF206887
:10167000B0F1A04F42D100BF002000902048006888
:1016800040F001001E4908600846006800F00100B3
:10169000009000BF00BF4FF4C050019002200290A4
:1016A00000200390032004900A20059001A915480A
:1016B000FFF7C6F800BF1248001D006840F0800028
:1016C0000F49091D086000BF002000900C4814302D
:1016D000006840F480400A491431086008460068F8
:1016E00000F48040009000BF00BF00BF0022114600
:1016F0004320FFF733FA4320FFF720FA06B010BD6E
:10170000303802400000024070B504460125E06810
:10171000022801D0FFF762F82946D4F8040403F048
:1017200056F8D4F8040402F0FBFF70BD10B504466F
:10173000D4F8040403F02AF810BD10B50446D4F818
:10174000040403F02EF810BD70B504460D4600BF2A
:1017500094F8BC03012801D1022070BD012084F857
:10176000BC0300BF84F838502946206804F031FAE1
:1017700000BF002084F8BC0300BF00BFEDE710B538
:10178000044604F57171D4F8040403F037F810BD71
:1017900070B50446256800BF94F8BC03012801D148
:1017A000022070BD012084F8BC0300BFA06A01289C
:1017B00006D1A069012803D0A86B40F48030A8634B
:1017C000206804F04DF9206803F0D4FC00BF00202D
:1017D00084F8BC0300BF00BFE3E7000010B5044677
:1017E000D4F8040403F067F82068D0F8000E40F045
:1017F00001002168C1F8000E206A28B10348006882
:1018000040F006000149086010BD000010ED00E046
:10181000F8B5044600250026207800F0010020B924
:10182000207800F0040004282FD100205F4988664A
:10183000FFF70AF9054606E0FFF706F9401B022804
:1018400001D90320F8BD5A480068C0F3C0600028E1
:10185000F2D160688101207A41EA007054498431F4
:101860000860012051498866FFF7EEF8054606E05A
:10187000FFF7EAF8401B022801D90320E2E74C48B1
:101880000068C0F3C0600028F2D0207800F00200A9
:1018900002287DD100BF00200090454840300068FC
:1018A00040F080504249403108600846006800F02E
:1018B0008050009000BF00BF3E48006840F4807038
:1018C0003C490860FFF7C0F8054606E0FFF7BCF8A2
:1018D000401B022801D90320B4E73648006800F411
:1018E00080700028F2D032487030006800F44076F2
:1018F0004EB3A08900F44070B04224D02C48703020
:10190000006820F4407601202B4908600020086020
:10191000274870300660006800F0010098B1FFF7BA
:1019200093F8054608E0FFF78FF8401B41F2883135
:10193000884201D9032085E71D4870300068C0F354
:1019400040000028EFD000BFA08900F44070B0F53F
:10195000407F0CD116480830006820F4F810174A70
:10196000E1681140084312490831086007E0104857
:101970000830006820F4F8100D49083108600C4860
:1019800070300068A189C1F30B010843084900E0E9
:1019900002E07031086000BF207800F008000828DD
:1019A00002D1207C0649086000204BE70000474236
:1019B0000038024000700040400E4742FFFCFF0F1D
:1019C000E011474270B504460D460CB9012070BDC8
:1019D0005848006800F00700A84209D255490D7028
:1019E0000846006800F00700A84201D00120EEE799
:1019F000207800F0020002281DD1207800F00400B9
:101A0000042805D14C48006840F4E0504A49086079
:101A1000207800F00800082805D14748006840F405
:101A20006040454908604448006820F0F000A16823
:101A3000084341490860207800F00100A8B36068BD
:101A4000012807D13C4808380068C0F34040B8B9C5
:101A50000120BCE76068022802D06068032807D133
:101A6000354808380068C0F3406048B90120AEE747
:101A7000314808380068C0F3400008B90120A6E7E3
:101A80002D48006820F00300616808432A49086077
:101A9000FEF7DAFF064609E0FEF7D6FF801B41F2AB
:101AA0008831884202D9032091E707E02248006884
:101AB00000F00C006168B0EB810FEDD11D480068AB
:101AC00000F00700A84209D91A490D7008460068BD
:101AD00000F00700A84201D0012078E7207800F04C
:101AE0000400042807D11448006820F4E050E1689D
:101AF000084311490860207800F00800082808D140
:101B00000D48006820F46040216940EAC1000A499C
:101B1000086000F01FF808490968C1F30311074A7B
:101B2000515CC8400649086006480068FEF7BCFFE3
:101B300000204CE7003C0240083802402808030817
:101B400080040020780400200148006870470000ED
:101B5000800400202DE9F047002400250026A1463E
:101B60002548006800F00C0020B1042805D00828A2
:101B70003AD105E0DFF8849039E0DFF8849036E070
:101B80001D48001F006800F03F041B48001F00684C
:101B900000F4800078B11A481749091F0968C1F399
:101BA0008811A0FB01700146224600233846FEF74B
:101BB00081FB05460EE011480F49091F0968C1F372
:101BC0008811A0FB01700146224600233846FEF72B
:101BD00071FB05460848001F0068C0F30140401C27
:101BE0004600B5FBF6F902E0DFF8109000BF00BF39
:101BF0004846BDE8F0870000083802400024F400A1
:101C000040787D01F8B504460CB90120F8BD207874
:101C100000F00100002874D0F948006800F00C00C2
:101C200004280DD0F648006800F00C00082813D1F5
:101C3000F348001F006800F48000B0F5800F0BD15E
:101C4000EF4808380068C0F34040002859D0606869
:101C5000002856D10120D9E700BF6068B0F5803F69
:101C600008D1E7480838006840F48030E449083972
:101C700008601EE06068B0F5A02F0DD1E04808387C
:101C8000006840F48020DE49083908600846006892
:101C900040F4803008600CE0D9480838006820F42F
:101CA0008030D749083908600846006820F4802051
:101CB000086000BF606890B1FEF7C6FE054606E00A
:101CC000FEF7C2FE401B642801D903209EE7CC48E2
:101CD00008380068C0F340400028F1D011E0FEF75A
:101CE000B3FE054606E0FEF7AFFE401B642801D9AF
:101CF00003208BE7C24808380068C0F34040002842
:101D0000F1D1207800F0020002285FD1BC480068C1
:101D100000F00C0058B1BA48006800F00C00082828
:101D20001CD1B748001F006800F48000B0B9B44867
:101D300008380068C0F3400020B1E068012801D0F5
:101D4000012063E7AE480838006820F0F8002169F8
:101D500040EAC100AA490839086037E0E06800B3EA
:101D60000120A8490860FEF76FFE054606E0FEF771
:101D70006BFE401B022801D9032047E7A048083822
:101D80000068C0F340000028F1D09D480838006882
:101D900020F0F800216940EAC1009949083908603B
:101DA00014E0002097490860FEF74EFE054606E065
:101DB000FEF74AFE401B022801D9032026E790487F
:101DC00008380068C0F340000028F1D1207800F006
:101DD000080008282CD16069A8B101208A49086050
:101DE000FEF732FE054606E0FEF72EFE401B0228F7
:101DF00001D903200AE782486C300068C0F3400034
:101E00000028F1D014E000207F490860FEF71CFE96
:101E1000054606E0FEF718FE401B022801D9032004
:101E2000F4E677486C300068C0F340000028F1D138
:101E3000207800F00400042870D100277048383062
:101E4000006800F0805090B900BF002000906C48FE
:101E50003830006840F080506949383108600846E1
:101E6000006800F08050009000BF00BF0127674865
:101E7000006800F48070B0B96448006840F4807075
:101E800062490860FEF7E0FD054606E0FEF7DCFD6E
:101E9000401B022801D90320B8E65C48006800F422
:101EA00080700028F2D000BFA068012808D15448F3
:101EB0006830006840F001005149683108601DE059
:101EC000A06805280DD14E486830006840F0040035
:101ED0004B49683108600846006840F0010008601E
:101EE0000CE047486830006820F001004449683140
:101EF00008600846006820F00400086000BFA06881
:101F0000A8B1FEF7A1FD054609E0FEF79DFD401BC7
:101F100041F28831884202D9032077E626E038482A
:101F200068300068C0F340000028EED013E0FEF7F0
:101F30008BFD054608E0FEF787FD401B41F2883126
:101F4000884201D9032061E62D4868300068C0F35B
:101F500040000028EFD1012F07D129483830006810
:101F600020F0805026493831086000BFA069002861
:101F700045D02348006800F00C0008285DD0A06917
:101F8000022845D100201F490866FEF75DFD054681
:101F900006E0FEF759FD401B022801D9032035E673
:101FA000174808380068C0F340600028F1D1D4E930
:101FB00007010843616A40EA81110122A06AC2EB6D
:101FC000500041EA00412C20005D41EA00600C49CC
:101FD000091F086001200B490866FEF735FD05461C
:101FE00006E0FEF731FD401B022801D903200DE673
:101FF000034808380068C0F340600028F1D049E089
:102000000838024000004742800E474200700040FE
:10201000002021490866FEF717FD054606E0FEF799
:1020200013FD401B022801D90320EFE51B4800687F
:10203000C0F340600028F2D12CE0A069012800D153
:10204000E4E51648001D0668A069012820D006F4C2
:102050008001E06981421BD106F03F01206A814284
:1020600016D147F6C0703040616AB0EB811F0FD1C6
:1020700006F440310122A06AC2EB5000B1EB004FE0
:1020800006D106F070612C20005DB1EB006F01D02D
:102090000120BBE50020B9E50000474200380240BE
:1020A00010B504460CB9012010BD607F20B9002096
:1020B0002077204600F060F80220607700BFCA2039
:1020C0002168486253202168486200BF204601F021
:1020D000E5FA40B100BFFF202168486200BF04203C
:1020E00060770120E0E72068806822490840216885
:1020F00088602169606808436169084321688968CC
:102100000843216888602168E068086120680169E7
:10211000208941EA0040216808612068C06820F0F9
:1021200080002168C8602068806800F0200060B9E5
:10213000204600F03FF840B100BFFF202168486210
:1021400000BF042060770120AEE72068006C20F417
:102150008020216808642068006CA1690843216818
:10216000086400BFFF202168486200BF012060773B
:10217000002099E7BFFF8FFF10B586B004461421F9
:1021800001A8FEF7C8F90949206888420CD102204D
:1021900001900002049001A8FFF73AFB08B1FEF796
:1021A0001DFB01200249086006B010BD0028004058
:1021B0003C0E474270B5044600252068C06820F0F8
:1021C000A0002168C860FEF73FFC054607E0FEF767
:1021D0003BFC401BB0F57A7F01D9032070BD20681D
:1021E000C06800F020000028F1D00020F6E710B50C
:1021F00004460CB9012010BD606A38B96068B0F5BA
:10220000827F00D105E00021E16102E0002121612F
:1022100061610021A16294F8510028B9002084F87E
:102220005000204600F048F8022084F85100206851
:10223000006820F0400021680860A08800F48270E7
:10224000218901F404410843A18901F40061084394
:10225000217C01F002010843217D01F001010843C6
:10226000218B01F400710843217F01F038010843FC
:102270002021095D01F080010843218D01F4005106
:102280000843216808600421A06901EA104094F81D
:10229000241001F010010843216848602068C069DB
:1022A00020F400602168C86100206065012084F886
:1022B000510000209FE7000010B586B004461421AD
:1022C00001A8FEF728F91B49206888422FD100BFDA
:1022D000002000901848006840F4805016490860BB
:1022E0000846006800F48050009000BF00BF00BFA7
:1022F0000020009010481438006840F001000E499A
:10230000143908600846006800F00100009000BF22
:1023100000BFA02001900220029000200390032023
:1023200004900520059001A90448FEF789FA06B03B
:1023300010BD00000030014044380240000002405F
:102340002DE9F84F0446884616461D464FF0000A10
:1023500000BF94F85000012802D10220BDE8F88F98
:10236000012084F8500000BFFEF76EFB0746B1461F
:1023700094F85100012802D04FF0020AADE0B8F104
:10238000000F00D016B94FF0010AA6E0032084F830
:10239000510000206065C4F83080A686E686A06300
:1023A000A087E08760642064A068B0F5004F0BD17F
:1023B0002068006820F040002168086020680068FC
:1023C00040F48040216808602068006800F0400008
:1023D000402805D02068006840F04000216808606F
:1023E000E068B0F5006F2FD1606810B1B9F1010F4E
:1023F00009D1206B00882168C860206B801C206395
:10240000E08E401EE0861BE02068806800F002003D
:1024100002280AD1206B00882168C860206B801CCC
:102420002063E08E401EE0860AE0FEF70DFBC01B35
:10243000A84201D3681C00B915B94FF0030A4CE05B
:10244000E08E0028E0D12EE0606810B1B9F1010FF4
:1024500009D1206B007821680873206B401C206331
:10246000E08E401EE0861BE02068806800F00200DD
:1024700002280AD1206B007821680873206B401C69
:102480002063E08E401EE0860AE0FEF7DDFAC01B06
:10249000A84201D3681C00B915B94FF0030A1CE02B
:1024A000E08E0028E0D13A462946204601F016F990
:1024B00008B120206065A06850B900BF00200090DE
:1024C0002068C068009020688068009000BF00BF4E
:1024D000606D08B14FF0010A00BF012084F851007F
:1024E00000BF002084F8500000BF504636E70428A3
:1024F00008D14FF0E021096941F004014FF0E022DA
:10250000116107E04FF0E021096921F004014FF06B
:10251000E0221161704770B504462546681EB0F18F
:10252000807F01D301200FE0681E4FF0E021486159
:102530000F214FF0FF3003F007FC00204FF0E021A7
:10254000886107200861002070BD70477047000057
:1025500030B502460B4600BF92F83C00012801D17D
:10256000022030BD012082F83C0000BF022082F82A
:102570003D00106844681068816824F07004186891
:10258000044310684460144D1068A84213D01068CA
:10259000B0F1804F0FD0114D1068A8420BD0104DF4
:1025A0001068A84207D00F4D1068A84203D00E4D06
:1025B0001068A84205D121F08001586801431068D5
:1025C0008160012082F83D0000BF002082F83C00BD
:1025D00000BF00BFC5E7000000000140000400404C
:1025E00000080040000C00400040014010B50446C7
:1025F0000CB9012010BD94F83D0028B9002084F8E2
:102600003C00204600F026F8022084F83D00211D01
:10261000206801F083F9012084F8460000BF84F8A7
:102620003E0001213F200155402001554120015528
:1026300000BF00BF012084F8420043200155442020
:1026400001554520015500BF012084F83D000020C0
:10265000D0E7000038B504462068B0F1804F14D1AF
:1026600000BF002000900948006840F001000749C1
:1026700008600846006800F00100009000BF00BF3D
:10268000002211461C20FEF769FA38BD403802408E
:10269000014691F83D00012801D001207047022039
:1026A00081F83D000868C06840F001000B68D86000
:1026B000164B0868984213D00868B0F1804F0FD0CD
:1026C000134B086898420BD0124B0868984207D009
:1026D000114B0868984203D0104B086898420CD1FF
:1026E0000868806800F00702062A0CD008680068B5
:1026F00040F001000B68186005E00868006840F0D1
:1027000001000B6818600020C8E7000000000140CD
:102710000004004000080040000C00400040014060
:102720002DE9F04104460D4600BF94F83C00012815
:1027300002D10220BDE8F081012084F83C0000BFF6
:10274000022084F83D002068866826F0770626F48B
:102750007F46206886602868502833D00CDC20280B
:1027600050D004DC00284BD0102851D149E030284B
:1027700049D040284CD139E060282DD0702807D0AE
:10278000B0F5805F03D0B0F5005F41D10DE040E0CF
:10279000D5E902136A68206801F012F9206886689A
:1027A00046F077062068866033E0D5E902136A6850
:1027B000206801F005F92068806840F480402168B5
:1027C000886026E0EA686968206801F00DF9502108
:1027D000206801F000F91CE0EA686968206801F0EF
:1027E00016F96021206801F0F6F812E0EA686968DD
:1027F000206801F0F9F84021206801F0ECF808E0C9
:1028000000BF00BF00BF2968206801F0E4F800E0C5
:1028100000BF00BF012084F83D0000BF002084F805
:102820003C0000BF00BF85E7704710B50446206834
:102830000069C0F34000D8B12068C068C0F3400010
:10284000B0B16FF002002168086101202077206894
:10285000806900F0030018B12046FFF7E5FF05E0AE
:10286000204600F0ADF8204600F0ABF800202077BD
:1028700020680069C0F38000D8B12068C068C0F348
:102880008000B0B16FF00400216808610220207759
:102890002068806900F4407018B12046FFF7C4FF3B
:1028A00005E0204600F08CF8204600F08AF8002071
:1028B000207720680069C0F3C000D8B12068C068E4
:1028C000C0F3C000B0B16FF00800216808610420B7
:1028D00020772068C06900F0030018B12046FFF798
:1028E000A3FF05E0204600F06BF8204600F069F8F1
:1028F0000020207720680069C0F30010D8B120685C
:10290000C068C0F30010B0B16FF01000216808611A
:10291000082020772068C06900F4407018B1204674
:10292000FFF782FF05E0204600F04AF8204600F05D
:1029300048F8002020772068006900F0010058B1B5
:102940002068C06800F0010030B16FF0010021681C
:102950000861204600F036F820680069C0F3C01016
:1029600058B12068C068C0F3C01030B16FF080006B
:10297000216808612046FFF7E8FD20680069C0F380
:10298000801058B12068C068C0F3801030B16FF07B
:10299000400021680861204600F062F82068006964
:1029A000C0F3401058B12068C068C0F3401030B187
:1029B0006FF02000216808612046FFF7C7FD10BDB9
:1029C000704770471F4988423AD101211E4A117051
:1029D0001E490978491C1D4A1170114609780A29B7
:1029E0001CD1002111701A490978491C184A11702C
:1029F000114609783C2911D1002111701549097837
:102A0000491C144A117011460978642906D1002125
:102A10000E4A11700E4A11700E4A11700E49097853
:102A200001290DD10D490978491C0C4A1170114634
:102A300009781E2904D1002111700221064A117063
:102A400070470000F8070020000400200304002065
:102A500002040020010400200504002006040020D8
:102A6000704700BFFEE7000010B500200F49086066
:102A70000F48006820F440400D490860084600688F
:102A800040F48040086000200A49C1F89C020820F8
:102A900007F0AAFC012005490860082007F0A4FC03
:102AA00000200449C1F8980210BD000098824042FD
:102AB000000402400080404200B587B0142102A803
:102AC000FDF729FD00BF002001901B48006840F081
:102AD0008000194908600846006800F080000190F5
:102AE00000BF00BF00BF002001900846006840F012
:102AF000020008600846006800F00200019000BF74
:102B000000BF0122C0210D48FDF798FFC0200290B0
:102B10000120039004900320059002A90748FDF7C7
:102B20008FFE0120064908600649C1F898022A2054
:102B300007F050FC07B000BD3038024000040240EE
:102B40009C8240420080404210B500200F4908603E
:102B50000F48006820F440400D49086008460068AE
:102B600040F48040086001200A49C1F89C02082016
:102B700007F03AFC012005490860082007F034FC02
:102B800000200449C1F8980210BD0000988240421C
:102B9000000402400080404270B5054600241648FB
:102BA000006820F440401449086008460068086046
:102BB000002616E0002011490860082007F014FCE8
:102BC00001200F49C1F898026006040E0B487C38BA
:102BD000006808B1601CC4B2082007F005FC701C36
:102BE000C6B2082EE6DB15B9FFF7AEFF01E0FFF72E
:102BF0003BFF204670BD0000000402409882404226
:102C00000080404270B504461348006820F44040FC
:102C1000114908600846006840F4804008600020C0
:102C20000E490860002514E0E0090C49091D086000
:102C30006006040E01200A49C1F89802082007F036
:102C4000D3FB002005490860082007F0CDFB681C75
:102C5000C5B2082DE8DB70BD0004024098824042F6
:102C60000080404210B51148006820F440400F49F0
:102C700008600846006840F48040086001200C4964
:102C800008600C49C1F89802102007F0ADFB002045
:102C900007490860102007F0A7FB00200549C1F88C
:102CA0009802102007F0A0FB10BD000000040240B5
:102CB0009C8240420080404210B50F48006820F4DA
:102CC00040400D4908600846006840F480400860B4
:102CD00000200A4908600A49C1F89C02102007F048
:102CE00083FB0120054908600549C1F89C021020BA
:102CF00007F07AFB10BD00000004024098824042B9
:102D00000080404210B500241548006820F440407F
:102D100013490860084600680860012011490860EE
:102D2000082007F061FB01200F49C1F89802082034
:102D300007F05AFB07E0601CC4B2FA2C03DDFFF772
:102D4000BBFF012010BD0748803800680028F2D181
:102D50000449091F0860082007F046FB0020F1E73E
:102D6000000402409C8240420080404270B504460C
:102D70000025FF21204600F05FF8204600F01FF8F4
:102D800005460148058370BD881F002010B5FFF778
:102D900093FE4FF400420021802000F02BF844F213
:102DA000DF420021802000F025F84FF42062052149
:102DB000802000F01FF88020FFF7D8FF10BD70B50D
:102DC00005460024FFF74EFF691CC8B2FFF71AFF43
:102DD000FFF798FF0120FFF7DFFE04464FF6FF7074
:102DE00000EA04240020FFF7D7FE0443FFF764FF46
:102DF000204670BD2DE9F04106460D4614460027D9
:102E0000FFF730FF3046FFF7FDFEFFF77BFF284658
:102E1000FFF7F8FEFFF776FF27123846FFF7F2FEBE
:102E2000FFF770FFE7B23846FFF7ECFEFFF76AFFE7
:102E3000FFF742FFBDE8F08170B505460C46FFF78D
:102E400011FF2846FFF7DEFEFFF75CFF2046FFF785
:102E5000D9FEFFF757FFFFF72FFF70BD30B50B46C8
:102E6000002100BF16E00A24B4EB107F05D93024FE
:102E700004EB107403F8114005E0412404EB1074D6
:102E80000A3C03F81140000100254C00641C1D554C
:102E90004C1CE1B29142E6DB30BD000000B587B0CA
:102EA000142102A8FDF737FB00BF002001902F4836
:102EB000006840F080002D4908600846006800F076
:102EC0008000019000BF00BF00BF002001900846B5
:102ED000006840F0010008600846006800F001004A
:102EE000019000BF00BF00BF0020019008460068AD
:102EF00040F0020008600846006800F002000190FF
:102F000000BF00BF012250211948FDF797FD0122A3
:102F100011031848FDF792FD502002900120039004
:102F2000002004900320059002A91148FDF788FCB9
:102F300000BF002001900D48006840F004000B49DC
:102F400008600846006800F00400019000BF00BF60
:102F50004FF400500290012003900490002005904F
:102F600002A90548FDF76CFC07B000BD30380240EF
:102F700000000240000402400008024010B50A4868
:102F80000A490860002048607F2108488160FF21CD
:102F9000C1600021016141618161FFF781F808B1E1
:102FA000FDF71CFC10BD0000002800408007002039
:102FB00010B51048104908604FF4827048604FF413
:102FC00000410D4881600021C160022101610121A1
:102FD0004161490281610821C161002101624162B0
:102FE00081620721C162FFF702F908B1FDF7F6FB24
:102FF00010BD000000300140A007002000B587B0E0
:1030000000200390049005900690019002904FF0EC
:1030100080401549086042F2CF0048600021124804
:10302000816040F2E731C16000210161802181614E
:10303000FFF7DCFA08B1FDF7D1FB4FF480500390A5
:1030400003A90948FFF76CFB08B1FDF7C7FB002097
:103050000190029001A90448FFF77AFA08B1FDF740
:10306000BDFB07B000BD0000F807002010B500222E
:103070000D490E4801F08DF908B1FDF7AFFB0C4981
:103080000A4801F055FC08B1FDF7A8FB09490748BB
:1030900000F017FE08B1FDF7A1FB044801F02AFD7E
:1030A00008B1FDF79BFB10BD0C0400204008002078
:1030B000940400206004002000BFFEE700BFFEE78C
:1030C00070B500240CE0002506E00020074901EB64
:1030D000C5010855681CC5B2802DF6DB601CC4B262
:1030E000082CF0DB00F0D6F870BD0000081B0020B3
:1030F00010B504461CB90021A62000F051F9012C9E
:1031000003D10021A72000F04BF910BDF0B5144603
:103110000B46CF1701EB5777C7F3C702CF1701EB69
:103120005777FF10A1EBC707FEB20123B340DDB212
:103130004CB1134B03EBC0039B5C2B43104F07EBCD
:10314000C007BB541AE00E4B03EBC0039B5CDB4390
:103150000B4F07EBC007BB54094B03EBC0039B5C51
:103160002B43074F07EBC007BB54054B03EBC003D2
:103170009B5CDB43024F07EBC007BB54F0BD000074
:10318000081B002010B500F0ABF800224021404899
:10319000FDF754FCC820FDF73FFB012240213C48CD
:1031A000FDF74CFC0021AE2000F0FAF800210846A3
:1031B00000F0F6F80021102000F0F2F80021B02015
:1031C00000F0EEF80021402000F0EAF80021812014
:1031D00000F0E6F80021882000F0E2F800218220CB
:1031E00000F0DEF80021084600F0DAF80021A12006
:1031F00000F0D6F80021A22000F0D2F80021A4208F
:1032000000F0CEF80021A62000F0CAF80021A82086
:1032100000F0C6F800213F2000F0C2F80021C820CD
:1032200000F0BEF80021D32000F0BAF800210846D3
:1032300000F0B6F80021D52000F0B2F80021A0205F
:1032400000F0AEF80021D92000F0AAF800212220D9
:1032500000F0A6F80021DB2000F0A2F800214020B9
:1032600000F09EF80021312000F09AF80021AD20F6
:1032700000F096F800218B2000F092F8FFF720FF75
:103280000021AF2000F08CF80020FFF731FF10BDC7
:103290000000024070B500241CE004F1B001C8B287
:1032A000002100F07DF80021084600F079F80021A7
:1032B000102000F075F8002508E0084901EBC50171
:1032C000085D012100F06CF8681CC5B2802DF4DBAC
:1032D000601CC4B2082CE0DB70BD0000081B00209D
:1032E00000B587B0142102A8FDF715F900BF002032
:1032F00001902848006840F0800026490860084690
:10330000006800F08000019000BF00BF00BF0020F7
:1033100001900846006840F0010008600846006817
:1033200000F00100019000BF00BF00BF002001902D
:103330000846006840F0020008600846006800F097
:103340000200019000BF00BF5020029001200390B6
:10335000002004900320059002A90F48FDF770FAA1
:10336000012002900390002004900320059002A900
:103370000A48FDF765FA012250210748FDF75EFB78
:10338000012211460548FDF759FBFFF711FE07B072
:1033900000BD00003038024000000240000402403E
:1033A00013B50C462CB1012211460F48FDF746FB20
:1033B00004E0002201210C48FDF740FB002210210F
:1033C0000A48FDF73BFB6423012269460848FEF7E3
:1033D000B7FF012211460448FDF730FB01221021FE
:1033E0000248FDF72BFB1CBD000402400000024018
:1033F000A007002010B50248FDF7BFFD10BD00007A
:10340000E01400202DE9F04704460D4626683746B3
:10341000D6F8408007F5306000EB4510D0F80890F2
:10342000104880450BD909F40040B0F5004F06D193
:103430004FF4004107F5306000EB451081602046F5
:10344000FEF79DF90748804508D92069012805D174
:1034500004F571720121206802F094F80020BDE8A3
:10346000F08700000A30544F2DE9F04705460C461E
:10347000D5F800804646D8F8409006F5306000EB5D
:10348000441087682869012873D107F008000828CC
:103490000FD1524881450BD907F40040B0F5004FD9
:1034A00006D14FF4004106F5306000EB4410816016
:1034B00091E007F02000202806D1202106F5306099
:1034C00000EB4410816086E007F0280000280ED150
:1034D000424881450CD907F40040B0F5004F07D1B0
:1034E0004FF4004106F5306000EB4410816072E05B
:1034F000C4EBC40105F5FE7000EB8100816806F5A0
:10350000306000EB44100069C0F31200091AC4EBEC
:10351000C40205F5FE7000EB82008161C4EBC401BA
:1035200005F5FE7000EB8100C4EBC402C16805F52F
:10353000FE7000EB820080680144C4EBC40205F514
:10354000FE7000EB8200C1606CB9C4EBC40105F5EC
:10355000FE7000EB8100406928B905F57172012108
:10356000286802F00FF8E1B22846FDF78DFB32E043
:10357000FFE71B4881451BD107F40040B0F5004F21
:1035800007D14FF4004106F5306000EB4410816034
:1035900021E007F02000202805D1202106F5306029
:1035A00000EB44108160E1B22846FDF76DFB12E0AC
:1035B0006CB9C4EBC40105F5FE7000EB81004069F5
:1035C00028B905F571720021286801F0DBFFE1B22E
:1035D0002846FDF759FB0020BDE8F0870A30544F1C
:1035E0000A31544F2DE9F84F07460E46D7F80090A0
:1035F000C846C6EBC60107F13C0000EB8104D4E9E4
:103600000510884202D90120BDE8F88FD4E90501F0
:10361000451AA068A84200D2A568E81C4FEA900AA3
:1036200017E0D4E90501451AA068A84200D2A568B0
:10363000E81C4FEA900A387CABB2F2B200904846E0
:10364000E16802F059FBE0682844E060A069284482
:10365000A06108F5106000EB4610806980B250450B
:1036600006D3D4E90510884202D260690028D8D177
:10367000D4E9050188420ED806F00F01012000FAB6
:1036800001FB40F6340050F8080020EA0B0040F639
:10369000340141F808000020B6E7704770B50446D1
:1036A00000252068C06800F04000A0B9681E2168AD
:1036B000C860FDF7C9F9054607E0FDF7C5F9401BED
:1036C000B0F57A7F01D9032070BD2068C06800F092
:1036D00040000028F1D00020F6E700007CB5044649
:1036E0000D461646164800681821B0FBF1F0154942
:1036F000B0FBF1F04FF47A71484301906068B0F587
:10370000827F0DD12B46002280212046009600F0BA
:103710001BF898B1606D40F02000606503207CBD0F
:1037200000BF019800B908E00198401E0190206890
:103730008068C0F3C0100028F3D100BF0020EEE77E
:103740008004002040420F002DE9F84F04460D464A
:1037500090461E46DDF82890FDF776F9A0EB0900AB
:10376000371AFDF771F982462C480068C0F3CB3058
:103770007843009045E0701C002842D0FDF764F9C2
:10378000A0EB0A00B84200D2A7BB2068406820F036
:10379000E000216848606068B0F5827F0DD1A068C4
:1037A000B0F5004F03D0A068B0F5806F05D1206858
:1037B000006820F0400021680860A06AB0F5005F52
:1037C0000DD100BF2068006820F400502168086017
:1037D0002068006840F400502168086000BF0120A4
:1037E00084F8510000BF002084F8500000BF03207F
:1037F000BDE8F88FFFE7009800B900270098401E49
:103800000090206880682840A84201D1012000E093
:1038100000204045AFD10020EAE7000080040020EE
:10382000704730B501460A461378521C147843EAB3
:10383000042030BD10B5FDF70DF910BD00B593B0F3
:10384000302107A8FCF767FE142102A8FCF763FEED
:1038500000BF002001902648006840F080502449B5
:1038600008600846006800F08050019000BF00BF6B
:1038700000BF002001901F48006820F4404040F441
:1038800000401C4908600846006800F44040019070
:1038900000BF00BF092007904FF48030089001203E
:1038A0000C9002200D9041050E9119210F914FF4BB
:1038B000A8711091042111910721129107A8FEF718
:1038C000A1F908B1FCF78AFF0F20029002200390B3
:1038D000002004904FF480500590002006900221B3
:1038E00002A8FEF76FF808B1FCF778FF13B000BD2F
:1038F00040380240007000400348006840F4700007
:10390000014908607047000088ED00E010B50248EA
:10391000FEF78BFF10BD0000F807002010B502680D
:10392000204B98420BD0B0F1804F08D01E4B9842EC
:1039300005D01E4B984202D01D4B984203D122F075
:1039400070024B681A43174B984214D0B0F1804F65
:1039500011D0154B98420ED0144B98420BD0144BFB
:10396000984208D0134B984205D0134B984202D08E
:10397000124B984203D122F44072CB681A4322F0D2
:1039800080034C6943EA040202608B68C3620B68DF
:103990008362044B984201D10B69036301234361A5
:1039A00010BD00000000014000040040000800407D
:1039B000000C00400040014000440140004801402C
:1039C00030B50C46816821F47F4142EA0325254346
:1039D0002943816030BD0A46816821F0700142F0C0
:1039E000070319438160704730B50B461446026ADD
:1039F000056A25F001050562816921F0F00141EABF
:103A0000041122F00A021A438161026230BD30B50E
:103A10000B461446056A25F0100505628169026AA5
:103A200021F4704141EA043122F0A00242EA03127B
:103A30008161026230BD2DE9F04104460D46D4F8A3
:103A4000C472D4F8BC0210B90320BDE8F081D4F8E8
:103A5000BC6205EB850104F1140000EB81004068B5
:103A600008B305EB850104F1140000EB8100C5EB00
:103A7000C502416807F13C0000EB82008068B1FBA1
:103A8000F0F200FB121070B9002105EB850204F181
:103A9000140000EB8200416000231A4629462046AC
:103AA00000F013FF0FE00020C6F81402D4F8C002A3
:103AB000006940B1D6F80802D4F8C0122A460B6952
:103AC00006F5047198470020BFE770B504460E461E
:103AD000D4F8BC52D4F8BC0208B9032070BD3146FA
:103AE000204600F064FDC5F80C02D5F80402D4F8B5
:103AF000C012CA6805F5037190470020EEE770B563
:103B000004460D468121204600F073FC00212187E8
:103B10000121204600F06DFC0021A4F878118221DB
:103B2000204600F066FC0021A4F84C10A4F84E10CA
:103B3000D4F8BC0250B1D4F8C01248688047D4F819
:103B4000BC0201F085F90020C4F8BC02002070BD61
:103B500070B50546D5F8BC420CB9032070BDD5F848
:103B6000C00278B194F80002FF280BD094F801222B
:103B700094F80002D5F8C0128B6821469847FF20C0
:103B800084F800020020E9E701460A200880014885
:103B90007047000088040020014643200880014847
:103BA00070470000100500200146432008800148AE
:103BB00070470000CC0400200146432008800148E3
:103BC000704700005405002070B504460E464FF4BF
:103BD000077001F03FF9054625B90020C4F8BC0282
:103BE000022070BDC4F8BC52207CA0B94FF4007311
:103BF00002228121204600F063FD012121874B0232
:103C00000222204600F05CFD0121A4F87811102169
:103C1000A4F84E1012E0402302228121204600F039
:103C20004FFD0121218740230222204600F048FD5C
:103C30000121A4F878111021A4F84E1008230322C2
:103C40008221204600F03CFD0121A4F84C10D4F85C
:103C5000C012086880470020C5F81402C5F8180291
:103C6000207C40B94FF4007301212046D5F804228E
:103C700000F03EFD06E0402301212046D5F8042255
:103C800000F036FD0020ACE770B50446D4F8BC5215
:103C9000D4F8BC0208B9032070BD207C40B94FF4B1
:103CA000007301212046D5F8042200F021FD06E032
:103CB000402301212046D5F8042200F019FD002000
:103CC000EAE7024609B903207047C2F8C012002093
:103CD000FAE702460B46D2F8BC1209B90320704736
:103CE000C1F804320020FAE710B503460C46D3F8B9
:103CF000BC1209B9032010BDC1F80842C1F8102256
:103D00000020F8E72DE9FC4105460C46D5F8BC62D9
:103D1000002001900090804616B90320BDE8FC8188
:103D2000207800F0600078B320286FD1E08818B3C5
:103D3000207800F0800098B1E2886078D5F8C01251
:103D40008B6831469847E088072801D9072000E0B2
:103D5000E08807463A463146284600F0D3F812E09C
:103D6000607886F80002A07986F80102E288314680
:103D7000284600F0A6F806E06078D5F8C0120022C8
:103D80008B682146984748E0FFE7607830B101280A
:103D900031D00A2813D00B282ED121E095F89C02AF
:103DA000032805D102226946284600F0ABF805E059
:103DB0002146284600F079F84FF0030823E095F8F3
:103DC0009C02032805D1012201A9284600F09AF897
:103DD00005E02146284600F068F84FF0030812E09D
:103DE00095F89C02032805D02146284600F05DF88E
:103DF0004FF0030807E006E02146284600F055F89A
:103E00004FF0030800BF00BF07E0FFE72146284648
:103E100000F04BF84FF0030800BF00BF40467DE7BD
:103E200070B504460D46D4F8B80228B1D4F8B802EB
:103E30002946426820469047002070BD70B5044670
:103E40000D4694F89C02012804D0022803D00328D0
:103E50000CD101E000BF00BF6888012805D1002017
:103E6000C4F8A402204600F05EF804E0294620468B
:103E700000F01BF800BF00BF70BD70B506460C46D1
:103E800015462B4622460021304600F031FC00202A
:103E900070BD70B506460C4615462B4622460021DD
:103EA000304600F012FD002070BD70B504460D468E
:103EB0008021204600F0DDFC0021204600F0D9FCE6
:103EC00070BD70B504460E4615460320C4F8940232
:103ED0004FF4AC700551001D05512B4632460021B0
:103EE000204600F005FC002070BD10B504460520FA
:103EF000C4F8940200231A461946204600F0F8FB45
:103F0000002010BD70B504460E4615460220C4F8C8
:103F10009402A561E5612B4632460021204600F05F
:103F2000D4FC002070BD10B504460420C4F89402EF
:103F300000231A461946204600F0C7FC002010BD99
:103F400070B505460C462DB92246064906A000F07C
:103F5000E0F904E02246034903A000F0DAF9014841
:103F600070BD0000100B002043444320436F6E6679
:103F7000696700000246122008800148704700006F
:103F80002804002070B505460C462DB92246064986
:103F900006A000F0BEF904E02246034903A000F0A9
:103FA000B8F9014870BD0000100B002043444320C5
:103FB000496E746572666163650000000246042004
:103FC00008800148704700003C04002070B5054699
:103FD0000C462246024903A000F09BF9004870BD40
:103FE000100B002053544D6963726F656C656374E8
:103FF000726F6E696373000070B505460C462DB98B
:104000002246064906A000F084F904E0224603494E
:1040100003A000F07EF9014870BD0000100B0020E5
:1040200053544D3332205669727475616C20436F5E
:104030006D506F727400000070B505460C461A2072
:104040002080FCF7CFFB014870BD00004004002039
:1040500070B504460D46E888012804D0294620465C
:10406000FFF723FF1EE094F89C02012804D00228E9
:1040700003D0032810D109E000BF0020A060012276
:1040800004F108012046FFF73DFF0AE00122211D4F
:104090002046FFF737FF04E029462046FFF705FFDB
:1040A00000BF00BF70BDF8B504460E46002000906A
:1040B0000027002570880012082875D2DFE800F07C
:1040C000C7040C20C7C7A5B5207CD4F8B4120A6871
:1040D000694690470746C1E0207C40B9D4F8B80251
:1040E000816A6846884707460220787007E0D4F85E
:1040F000B802C16A68468847074602207870ADE07A
:10410000B078062878D2DFE800F00316293C506327
:10411000D4F8B402406838B1207CD4F8B4124A68AC
:1041200069469047074605E031462046FFF7BDFE49
:10413000681CC5B267E0D4F8B402806838B1207C4E
:10414000D4F8B4128A6869469047074605E03146BC
:104150002046FFF7AAFE681CC5B254E0D4F8B402AA
:10416000C06838B1207CD4F8B412CA686946904758
:10417000074605E031462046FFF797FE681CC5B2AA
:1041800041E0D4F8B402006938B1207CD4F8B4120C
:104190000A6969469047074605E031462046FFF721
:1041A00084FE681CC5B22EE051E0D4F8B402406928
:1041B00038B1207CD4F8B4124A6969469047074662
:1041C00005E031462046FFF770FE681CC5B21AE0D4
:1041D000D4F8B402806940B1207CD4F8B4128A6962
:1041E00069469047074606E006E031462046FFF75D
:1041F0005CFE681CC5B206E031462046FFF755FE5E
:10420000681CC5B200BF00BF28E0207C30B9D4F8DC
:10421000B802416B68468847074605E031462046AC
:10422000FFF743FE681CC5B218E0207C40B9D4F803
:10423000B802016B6846884707460720787005E09A
:1042400031462046FFF731FE681CC5B206E0314614
:104250002046FFF72AFE681CC5B200BF00BF05B1AB
:10426000F8BDF088C0B1BDF8000080B1F088BDF89D
:104270000010884202DDBDF8000000E0F0880090E8
:10428000BDF8002039462046FFF73CFE07E03146E6
:104290002046FFF70AFE02E02046FFF744FE00BF7B
:1042A000DEE7014600200A4602E0431CD8B2521C59
:1042B0001378002BF9D1704770B504460D4694F879
:1042C0009C02012804D0022803D003281AD101E05F
:1042D00000BF00BFE888022804D029462046FFF727
:1042E000E4FD14E00120E060D4F8A40218B1E06815
:1042F00040F00200E060022204F10C012046FFF7CA
:1043000001FE04E029462046FFF7CFFD00BF00BFB5
:1043100070BD2DE9F04107460D46904600240FB9C7
:10432000BDE8F0813E463046FFF7BBFF022101EBBE
:104330004000A8F8000098F800002855601CC4B29E
:1043400003202855601CC4B208E030782855761C3C
:10435000601CC4B200202855601CC4B2307800280C
:10436000F3D100BFDCE70146002031B1012906D0BE
:10437000022906D0032908D105E0002007E0032028
:1043800005E0012003E0032001E0032000BF00BF9F
:1043900070472DE9F04104460D46164614B9032036
:1043A000BDE8F0810020C4F8B802C4F8C002C4F827
:1043B000CC020DB1C4F8B452012084F89C022670DE
:1043C000204600F0FDF807463846E9E72DE9F041C0
:1043D00004460D46002600272946D4F8C402FCF7FF
:1043E0009FFC06463046FFF7BEFF07463846BDE84D
:1043F000F0812DE9F04104460D46002600272946AC
:10440000D4F8C402FCF757FC06463046FFF7ABFF72
:1044100007463846BDE8F0812DE9F04104460F46D5
:104420009046002F54D104F11405D4F894020228C8
:1044300043D1D5E9020188420FD9D5E90201401ADA
:10444000A86041462046AA68FFF723FD00231A46CC
:104450001946204600F04CF92FE0D5E902108842B9
:1044600017D1E9686868884213D36868D4F898124D
:1044700088420ED2002211462046FFF70AFD002096
:10448000C4F8980200231A461946204600F030F975
:1044900013E094F89C02032808D1D4F8B802C0684D
:1044A00020B1D4F8B802C168204688478021204650
:1044B00000F0DFF92046FFF718FD94F8A00201286C
:1044C00019D1204600F04BFA002084F8A00212E037
:1044D00094F89C0203280ED1D4F8B802406950B178
:1044E000D4F8B8023946426920469047064616B1CC
:1044F0003046BDE8F0810020FBE72DE9F04105469C
:104500000F4690465FBB05F5AA74D5F894020328C0
:1045100038D1D4E90201884210D9D4E90201401A05
:10452000A060D4E90201884201D2A06800E0E068FE
:10453000024641462846FFF7A0FC23E095F89C027E
:10454000032808D1D5F8B802006920B1D5F8B8021F
:104550000169284688472846FFF7E5FC12E095F8F0
:104560009C0203280ED1D5F8B802806950B1D5F865
:10457000B8023946826928469047064616B1304649
:10458000BDE8F0810020FBE701460020704710B530
:104590000446012084F89C02D4F8B80228B121799D
:1045A000D4F8B802426820469047002010BD70B58C
:1045B00004460D462946D4F8C402FCF7EFFB70BD53
:1045C00010B50446207800282AD11648C0F80444C3
:1045D000C4F8C4024FF0A0401249086004204860AB
:1045E00002211048C1600021016102218161002186
:1045F000C16101624162C1620163FCF77EFF08B1E3
:10460000FCF7ECF880210748FCF7FBFA4022002178
:104610000448FCF7FBFA802201210248FCF7F6FA75
:10462000002010BDE014002010B50246D2F8C432BC
:1046300001F08000802809D101F07F00C0EBC004A8
:1046400003F13C0000EB8400807810BD01F07F0096
:10465000C0EBC00403F5FE7000EB84008078F4E743
:1046600070B504460D46D4F8B80208B9032070BDF1
:1046700094F89C02032809D1D4F8B802006A28B142
:10468000D4F8B8022946026A204690470020EEE797
:1046900070B504460D46D4F8B80208B9032070BDC1
:1046A00094F89C02032809D1D4F8B802406A28B1D2
:1046B000D4F8B8022946426A204690470020EEE727
:1046C0002DE9F04704460F4615461E464FF00008F8
:1046D000C1462B4632463946D4F8C402FCF769FB82
:1046E00080464046FFF73FFE81464846BDE8F087DA
:1046F0002DE9F04704460D4616461F464FF00008C8
:10470000C1463B4632462946D4F8C402FCF797FB23
:1047100080464046FFF727FE81464846BDE8F087C1
:1047200010B50446012084F89C020020C4F89402CD
:104730006060C4F8A402D4F8B80208B9032010BD20
:10474000D4F8BC0248B1D4F8B802406828B1217945
:10475000D4F8B80242682046904740230022114610
:104760002046FFF7ADFF01214FF4B2700153402105
:10477000001F01514023002280212046FFF7A0FFA7
:104780000121A184402121620020D8E7014691F84F
:104790009C02042803D191F89D0281F89C0200201C
:1047A000704710B50446D4F8B80208B9032010BD0C
:1047B00094F89C02032808D1D4F8B802C06920B14B
:1047C000D4F8B802C169204688470020EFE70246C6
:1047D0001174002070472DE9F04104460D46002673
:1047E00000272946D4F8C402FCF7AEFF064630463F
:1047F000FFF7B9FD07463846BDE8F08170B50446BD
:104800000D46294604F2AA2000F077F80120C4F8EA
:1048100094024FF42C70005BC4F8980294F8AA023A
:1048200000F01F0020B1012809D0022815D10DE0A9
:1048300004F2AA21204600F063F9064616E004F2CD
:10484000AA21204600F0C5FA06460FE004F2AA218C
:10485000204600F0A8F9064608E094F8AA0200F005
:104860008001204600F005F8064600BF00BF304634
:1048700070BD2DE9F04104460D460026002729466B
:10488000D4F8C402FCF707FB06463046FFF76BFD81
:1048900007463846BDE8F08170B50446002500267D
:1048A000D4F8C402FCF774FF05462846FFF75BFD09
:1048B0000646304670BD014691F89C0281F89D0283
:1048C000042081F89C02002070472DE9F04704463F
:1048D0000D4616461F464FF00008C1463B4632467D
:1048E0002946D4F8C402FCF71BFB80464046FFF77C
:1048F0003AFD81464846BDE8F08770B505460E464C
:10490000344620782870641C20786870641C204627
:10491000FEF787FF6880641C641C2046FEF781FF59
:10492000A880641C641C2046FEF77BFFE88070BDF5
:1049300038B504460D46002000900DB9032038BD5F
:10494000C4F8B852D4F8B802C06A30B1D4F8B8028A
:10495000C16A68468847C4F8CC020020EFE70146E8
:104960000020704770B504460D46A88810BBE88843
:1049700000BB688880281DD2A87800F07F0694F8D4
:104980009C02032804D129462046FFF78EFA15E041
:1049900084F89E6231462046FFF71DFF2046FFF750
:1049A000C2FA1EB1022084F89C0207E0012084F8BC
:1049B0009C0203E029462046FFF777FA70BD70B5E8
:1049C00004460D460326D4F8B80230B1D4F8B80234
:1049D00029460268204690470646304670BD0000D2
:1049E00070B504460E460025B0783B49087008466D
:1049F0000078012805D931462046FFF756FA0320F2
:104A000070BD94F89C02022802D0032856D11CE005
:104A100031480078A8B13048007860602E480178AD
:104A20002046FFF7CCFF054625B131462046FFF76B
:104A30003CFA09E02046FFF776FA032084F89C024E
:104A400002E02046FFF76FFA43E02348007870B990
:104A5000022084F89C022048007860601E4801789B
:104A60002046FFF7DDF92046FFF75DFA25E01A49F9
:104A70000978606888421DD021792046FFF7D0F977
:104A8000154800786060144801782046FFF797FFCA
:104A900005465DB131462046FFF707FA21792046E9
:104AA000FFF7BEF9022084F89C0206E02046FFF7DB
:104AB0003AFA02E02046FFF736FA0AE0314620468D
:104AC000FFF7F3F9044801782046FFF7A9F9032519
:104AD00000BF00BF284693E78404002070B5054658
:104AE0000C466088012804D1C5F8A4022846FFF7C7
:104AF0001AFA70BD10B504462046FFF7CDFE10BD72
:104B000070B505460C460026207800F0600068B1BC
:104B1000202802D040283ED100E000BFD5F8B802DE
:104B20002146826828469047064639E060780A2880
:104B30002AD2DFE800F01A24291F290A0529150FB7
:104B400021462846FFF7AFFA23E021462846FFF723
:104B500009FF1EE021462846FFF742FF064618E0FF
:104B600021462846FFF774FA13E021462846FFF74E
:104B7000A3FB0EE021462846FFF7B0FF09E02146DF
:104B80002846FFF75BF904E021462846FFF78DF938
:104B900000BF00BF04E021462846FFF786F900BFAA
:104BA00000BF304670BD2DE9F04105460E464FF07E
:104BB00000083479307800F0600068B1202802D015
:104BC000402871D100E000BFD5F8B80231468268B4
:104BD000284690478046F8E07078002865D0012884
:104BE0002FD0032870D195F89C02022802D0032808
:104BF00020D110E054B1802C08D021462846FFF780
:104C000038FE80212846FFF734FE03E0314628466F
:104C1000FFF74BF913E0708840B93CB1802C05D008
:104C2000F08818B921462846FFF723FE2846FFF7EB
:104C30007AF904E031462846FFF737F900BF00BF94
:104C4000BCE095F89C02022802D0032825D110E090
:104C500054B1802C08D021462846FFF70AFE802157
:104C60002846FFF706FE03E031462846FFF71DF908
:104C700018E0708880B904F07F0018B121462846FA
:104C8000FFF7A4FB2846FFF74EF9D5F8B8023146E6
:104C9000826828469047804604E031462846FFF760
:104CA00004F900BF00BF89E08AE095F89C02022861
:104CB00002D0032876D126E03CB1802C05D03146C5
:104CC0002846FFF7F2F872E073E004F080008028D5
:104CD00008D104F07F0000EB800105F1140000EB27
:104CE000810007E004F07F0000EB800105F5AA7069
:104CF00000EB810007460020386002223946284632
:104D0000FFF700F953E004F0800080280ED104F092
:104D10000F0000EB800105F1140000EB8100008A18
:104D200098B931462846FFF7C0F840E004F00F007C
:104D300000EB800105F5AA7000EB8100008A20B924
:104D400031462846FFF7B1F831E004F080008028B2
:104D500008D104F07F0000EB800105F1140000EBA6
:104D6000810007E004F07F0000EB800105F5AA70E8
:104D700000EB810007460CB1802C02D10020386086
:104D800009E021462846FFF74FFC10B101203860AA
:104D900001E000203860022239462846FFF7B2F8C9
:104DA00005E0FFE731462846FFF77FF800BF00BF68
:104DB00004E031462846FFF778F800BF00BF04E062
:104DC00031462846FFF771F800BF00BF4046BDE8F6
:104DD000F08170B505460C460026207800F0600092
:104DE00030B1202802D040282AD100E000BF00BF07
:104DF00095F89C02012804D0022803D0032818D17A
:104E000001E000BF00BF207901280DD8D5F8B80215
:104E100021468268284690470646E08840B93EB958
:104E20002846FFF780F803E021462846FFF73DF8C3
:104E300004E021462846FFF738F800BF00BF04E031
:104E400021462846FFF731F800BF00BF304670BD4D
:104E5000704700000146014870470000E818002034
:104E600070B504460B4622461978587801282CD193
:104E700040F61C0080581D7805F00F060125B5404E
:104E8000ADB2284340F61C05A85002F5106000EBB7
:104E90004110006800F40040F0BB1889C0F30A001C
:104EA000DD7840EA854040EA815040F0805040F48F
:104EB000004002F5106505EB41152D68284302F509
:104EC000106505EB411528602DE040F61C00805868
:104ED0001D7805F00F060125B540144E06EA05457C
:104EE000284340F61C05A85002F5306000EB411045
:104EF000006800F4004078B91889C0F30A00DD7832
:104F000040EA854040F0805040F4004002F53065B2
:104F100005EB41152D6800E005E0284302F53065FA
:104F200005EB41152860002070BD00000000FFFF68
:104F300001460A464FF410608058C30ADB024FF462
:104F40001060835040F60400805840F4807340F6AF
:104F500004008350002070470FB470B504460A98CF
:104F6000012817D1A06B20F48030A063E0681A49B3
:104F70000840E060E06820F44010E06011980128EB
:104F800003D1E06840F48010E060204600F026F88D
:104F9000054612E0E06840F04000E060204600F086
:104FA0001DF805460E9820B9A06B40F48030A06330
:104FB00003E0A06B20F48030A0630898012807D19B
:104FC000A06840F00600A060A06840F02000A0604B
:104FD000284670BC5DF814FBBFFFBDFF01460022F0
:104FE00000BF501C02460F4B984201D90320704766
:104FF000086900F000400028F3D00022086940F062
:105000000100086100BF501C0246064B984201D9BE
:105010000320ECE7086900F001000028F3D100BF8D
:10502000E5E70000400D030070B504460B4622463C
:1050300019785878012848D102F5106000EB41102A
:10504000006800F00040B0F1004F17D102F5106089
:1050500000EB4110006840F0006502F5106000EBC5
:105060004110056002F5106000EB4110006840F04F
:10507000804502F5106000EB4110056040F63C00F1
:1050800080581D7805F00F060125B540ADB2A84344
:1050900040F63C05A85040F61C0080581D7805F0ED
:1050A0000F060125B540ADB2A84340F61C05A85037
:1050B00002F5106000EB411000682B4D284002F50E
:1050C000106505EB411528604BE002F5306000EB00
:1050D0004110006800F00040B0F1004F17D102F518
:1050E000306000EB4110006840F0006502F5306070
:1050F00000EB4110056002F5306000EB41100068E4
:1051000040F0804502F5306000EB4110056040F64C
:105110003C0080581D7805F00F060125B540134E60
:1051200006EA0545A84340F63C05A85040F61C0099
:105130008558187800F00F060120B0400B4E06EAA3
:105140000040854340F61C00855002F5306000EBBE
:1051500041100068064D284002F5306505EB411509
:105160002860002070BD0000007833EC0000FFFFD5
:105170000078F3EF01460A46D2F8000E20F0030053
:10518000C2F8000E40F60400805820F0020340F6FA
:10519000040083500020704701460A46D2F8000EF2
:1051A00020F00300C2F8000E40F60400805840F0E2
:1051B000020340F604008350002070470FB4F0B59E
:1051C000054600272E46002405E0002105F58270E3
:1051D00040F82410641C0F2CF7D31098A0B940F6A7
:1051E0000400805940F0020140F604008151A86B90
:1051F00040F40010A863A86B20F40020A863A86BFB
:1052000020F48020A86307E0A86B20F40010A863B6
:10521000A86B40F40020A8630020C6F8000ED6F862
:105220000008C6F800080B9801280BD1089820B98F
:105230000021284600F0E2FC08E00121284600F0A9
:10524000DDFC03E00321284600F0D8FC10212846AD
:1052500000F024FC00B10127284600F009FC00B151
:10526000012700214FF401608151001D815140F65A
:105270001C00815100242EE006F5106000EB441064
:10528000006800F00040B0F1004F10D13CB94FF081
:10529000006106F5106000EB441001600DE04FF076
:1052A000904106F5106000EB4410016005E000211C
:1052B00006F5106000EB44100160002106F5106057
:1052C00000EB441001614FF67F3106F5106000EBF2
:1052D00044108160641C0698A042CDD800242EE0C2
:1052E00006F5306000EB4410006800F00040B0F1BB
:1052F000004F10D13CB94FF0006106F5306000EB73
:10530000441001600DE04FF0904106F5306000EB75
:105310004410016005E0002106F5306000EB441008
:105320000160002106F5306000EB441001614FF68A
:105330007F3106F5306000EB44108160641C0698F4
:10534000A042CDD84FF40160805920F480714FF411
:10535000016081510020A8616FF080406861099868
:1053600018B9A86940F01000A861A8690949084364
:10537000A8610C9818B1A86940F00800A8611098BD
:10538000012803D1A86904490843A8613846F0BC44
:105390005DF814FB00383C8004000040014688683A
:1053A00020F001008860002070470000F0B505463D
:1053B0000B4614462A4619785878012875D1586941
:1053C00020BB02F5106000EB411000696C4E3040CC
:1053D00002F5106606EB4116306102F5106000EB35
:1053E0004110006940F4002602F5106000EB411006
:1053F000066102F5106000EB41100069C60CF6046E
:1054000002F5106000EB4110066137E002F5106014
:1054100000EB41100069C60CF60402F5106000EBC9
:105420004110066102F5106000EB41100069544E16
:10543000304002F5106606EB411630619E685869EF
:10544000B04201D99868586102F5106000EB411034
:10545000006940F4002602F5106000EB411006617F
:1054600002F5106000EB411000695E69C6F3120698
:10547000304302F5106606EB41163061012C15D160
:10548000186928B102F5106000EB41101E694661F1
:1054900002F5106000EB4110006840F0044602F590
:1054A000106000EB4110066068E01BE002F5106040
:1054B00000EB4110006840F0044602F5106000EB7C
:1054C000411006605869002858D040F634008058D2
:1054D0001E7806F00F070126BE40304340F6340622
:1054E000B0504BE002F5306000EB41100069C60C93
:1054F000F60402F5306000EB4110066102F5306001
:1055000000EB411000691E4E304002F5306606EB9C
:1055100041163061586908B19868586102F53060E9
:1055200000EB4110006940F4002602F5306000EB0A
:105530004110066102F5306000EB411000699E6881
:10554000C6F31206304302F5306606EB41163061B1
:10555000012C07D1D86828B102F5306000EB41106A
:10556000DE68466102F5306000EB4110006840F0F3
:10557000044602F5306000EB411006600020F0BDEB
:10558000FFFF07E070B503460C4619461D6C18482E
:10559000854209D94FF43060405800F00040B0F126
:1055A000004F01D1002070BD0026C1F8106BD1F86A
:1055B000100B40F40026C1F8106BD1F8100B40F02E
:1055C0001806C1F8106BD1F8100B40F0C046C1F8B6
:1055D000106B012C09D1C1F8142B4FF430604058E6
:1055E00040F080264FF4306046500020DBE700009A
:1055F0000A30544F30B504460B4622461978587885
:1056000001281ED102F5106000EB4110006820F463
:10561000001502F5106000EB41100560D8780328F2
:1056200002D0D87802282AD102F5106000EB411090
:10563000006840F0805502F5106000EB41100560F5
:105640001DE002F5306000EB4110006820F4001509
:1056500002F5306000EB41100560D878032802D0D5
:10566000D87802280BD102F5306000EB41100068B9
:1056700040F0805502F5306000EB411005600020DD
:1056800030BD30B504460B462246197858780128BB
:1056900021D102F5106000EB4110006800F00040DD
:1056A00060B959B102F5106000EB4110006820F0BC
:1056B000804502F5106000EB4110056002F51060B6
:1056C00000EB4110006840F4001502F5106000EB9B
:1056D0004110056020E002F5306000EB41100068E9
:1056E00000F0004060B959B102F5306000EB4110A4
:1056F000006820F0804502F5306000EB4110056045
:1057000002F5306000EB4110006840F4001502F52E
:10571000306000EB41100560002030BD2DE9F843FA
:1057200081460E4617464D463478707801287DD163
:10573000706920BB05F5106000EB44100069C74993
:10574000084005F5106101EB4411086105F5106092
:1057500000EB4410006940F4002105F5106000EBF7
:105760004410016105F5106000EB44100069C10CA4
:10577000C90405F5106000EB4410016155E005F522
:10578000106000EB44100069C10CC90405F51060FD
:1057900000EB4410016105F5106000EB4410006956
:1057A000AE49084005F5106101EB44110861B1688C
:1057B00070690844401EB0FBF1F0A849C94301EAF2
:1057C000C04005F5106101EB44110969084305F576
:1057D000106101EB4411086105F5106000EB441005
:1057E00000697169C1F31201084305F5106101EB0D
:1057F00044110861F078012817D105F5106000EB1D
:105800004410006920F0C04105F5106000EB441021
:10581000016105F5106000EB4410006940F0005193
:1058200005F5106000EB4410016100E07FE0012FFE
:1058300036D1306928B105F5106000EB44103169AC
:105840004161F07801281ED140F60800405900F46B
:10585000807060B905F5106000EB4410006840F0FE
:10586000005105F5106000EB441001600BE005F5F8
:10587000106000EB4410006840F0805105F51060A6
:1058800000EB4410016005F5106000EB4410006867
:1058900040F0044105F5106000EB44100160DAE0CF
:1058A00005F5106000EB4410006840F0044105F578
:1058B000106000EB44100160F07801280FD070698F
:1058C0000028ECD040F634004059317801F00F0246
:1058D00001219140084340F634014851BBE040F6B5
:1058E0000800405900F4807060B905F5106000EBC5
:1058F0004410006840F0005105F5106000EB4410C2
:1059000001600BE005F5106000EB4410006840F00A
:10591000805105F5106000EB441001600097B08ADB
:1059200083B232784846F16800F0E6F993E005F575
:10593000306000EB44100069C10CC90405F530600B
:1059400000EB4410016105F5306000EB4410006984
:105950004249084005F5306101EB44110861706966
:10596000D0B905F5306000EB44100069B168C1F3AF
:105970001201084305F5306101EB4411086105F59A
:10598000306000EB4410006940F4002105F5306000
:1059900000EB4410016126E0B16870690844401EC4
:1059A000B0FBF1F01FFA80F805F5306000EB441011
:1059B00000692A49C94301EAC841084305F5306135
:1059C00001EB4411086105F5306000EB44100069FB
:1059D000B16801FB08F1C1F31201084305F530611C
:1059E00001EB44110861012F07D1F06828B105F5DA
:1059F000306000EB4410F1684161F07801281ED15D
:105A000040F60800405900F4807060B905F5306038
:105A100000EB4410006840F0005105F5306000EBE9
:105A2000441001600BE005F5306000EB44100068A5
:105A300040F0805105F5306000EB4410016005F541
:105A4000306000EB4410006840F0044105F5306020
:105A500000EB441001600020BDE8F883FFFF07E081
:105A60000146886840F0010088600020704700000F
:105A7000014600221020086100BF501C0246064B60
:105A8000984201D903207047086900F010001028DF
:105A9000F3D00020F7E70000400D030010B50246E8
:105AA0000023202040EA8110106100BF581C0346EB
:105AB000054CA04201D9032010BD106900F0200060
:105AC0002028F3D00020F7E7400D030010B5014671
:105AD0000B4640F60804E45804F006020AB9002018
