:020000040800F2
:100000009824002095020008373E00088F3600082B
:10001000353E00086B160008C561000800000000AE
:1000200000000000000000000000000089480008F7
:10003000ED160008000000002B4600089548000857
:10004000AF020008AF020008AF020008AF020008CC
:10005000AF020008AF020008AF020008AF020008BC
:10006000AF020008AF020008AF020008AF020008AC
:10007000AF020008AF020008AF020008AF0200089C
:10008000AF020008AF020008AF0200080000000045
:10009000000000000000000000000000AF020008A7
:1000A000AF020008AF020008AF020008AF0200086C
:1000B00049490008AF020008AF020008AF0200087B
:1000C000AF020008AF020008AF020008AF0200084C
:1000D000AF020008AF020008AF02000800000000F5
:1000E000F1160008AF020008AF020008000000008F
:1000F000000000000000000000000000AF02000847
:1001000000000000AF020008AF020008AF020008C4
:1001100000000000000000000000000000000000DF
:10012000AF020008AF020008AF020008AF020008EB
:10013000AF02000800000000000000000000000006
:10014000000000000000000000000000B1440008B2
:10015000AF020008AF020008AF020008AF020008BB
:10016000AF020008AF02000800000000000000001D
:10017000000000000000000000000000000000007F
:1001800000000000AF0200080000000000000000B6
:10019000AF02000800F002F800F06CF80AA090E846
:1001A000000C82448344AAF10107DA4501D100F032
:1001B00061F8AFF2090EBAE80F0013F0010F18BF93
:1001C000FB1A43F001031847CC8D0000EC8D0000B2
:1001D0000A444FF0000C10F8013B13F0070408BF6D
:1001E00010F8014B1D1108BF10F8015B641E05D00B
:1001F00010F8016B641E01F8016BF9D113F0080FC0
:100200001EBF10F8014BAD1C0C1B09D16D1E58BF51
:1002100001F801CBFAD505E014F8016B01F8016B88
:100220006D1EF9D59142D6D37047000000230024FB
:1002300000250026103A28BF78C1FBD8520728BFF6
:1002400030C148BF0B607047662906F0AD81642954
:1002500000F0F480002070471FB506F0A0F900F010
:10026000C7FC04000020002106F00CF9E0601FBD6F
:1002700010B510BD00F0BCFD1146FFF7EDFF06F014
:1002800015F800F0DAFD03B4FFF7F2FF03BC00F04D
:100290001DFE00000948804709480047FEE7FEE7C9
:1002A000FEE7FEE7FEE7FEE7FEE7FEE7FEE7FEE726
:1002B00004480549054A064B7047000039490008C3
:1002C00095010008981E0020982400209820002006
:1002D0009820002053EA020C00F069802DE9F04BD1
:1002E0004FF00006002B1FBFB3FA83F503FA05F4A5
:1002F00024FA05F65E4012BF1643B2FA82F502FAFE
:1003000005F4C5F120051EBF22FA05FC44EA0C04E1
:10031000203556EA044C4FEA144418BF641C4FF0D1
:1003200000084FF00009904271EB030C39D300290B
:1003300019BFB1FA81F701FA07F6B0FA80F700FAAF
:1003400007F6C7F120071EBF20FA07FC46EA0C0695
:100350002037B6FBF4FCA7EB0507103F07F01F0B97
:10036000CBF120060CFA0BFB2CFA06F644BFB34681
:100370000026202FA4BF5E464FF0000B5BEA060C60
:1003800008BF4FF0010B19EB0B09ABFB027C48EBEC
:100390000608C01B06FB02CC0BFB03CC71EB0C0167
:1003A000C1E70B46024641464846BDE8F08B13B50F
:1003B0004FF000004FF00001AFF30080BDE81C409B
:1003C000704700000FB41CB5074B06AA7B44694672
:1003D0000090059800F0F3FB0020694600F002FC55
:1003E0001CBC5DF814FB00001508000070B5044645
:1003F00085690068C10601D5302600E02026C007C7
:1004000007D070BDD4E9012130469047206A401CD6
:1004100020626D1EF6D570BD70B504468569007802
:10042000C00707D170BDD4E9012120209047206A80
:10043000401C20626D1EF6D570BD00002DE9F04114
:100440000646002410687529314616A510D0AFF372
:100450000080002802DA404213A507E031688A07CD
:1004600001D512A502E0490704D511A5012401E038
:10047000AFF3008000210A2206F1240709E0B0FB57
:10048000F2FCB0FBF2F302FB1C003030785418464B
:10049000491C0028F3D123462A463046BDE8F041E6
:1004A00000F01FB9000000002D0000002B0000002C
:1004B000200000002DE9F05F894604464FF0000A55
:1004C000DFF824B1FB44C0F820A02046E16888474B
:1004D00000287DD0252806D0D4E901219047206A44
:1004E000401C2062F1E700255F462046E16888470E
:1004F0002028064607DB312E05D2B81910F8200C4B
:1005000008B10543F1E7A80701D525F00405C4F8B3
:100510001CA00027C4F818A02A2E09D0304605F0E8
:100520007AFE38B304EB8708303EC8F8186019E04B
:1005300059F8041B204604EB87029161E168884763
:10054000012F064618D1E069002820DA25F02005A1
:100550001DE0D8F8180000EB800006EB40003038B2
:10056000C8F818002046E1688847064605F053FEA3
:100570000028EED1012F0AD02E2E08D12046E168A6
:1005800088477F1C0646022F45F02005C4DBA06982
:10059000002803DA404245F00105A061E80701D0D8
:1005A00025F01005A6B1A6F14100192802D8203681
:1005B00045F400654A463146204625604D46FFF722
:1005C00043FE60B1012807D0ED1D25F0070000E0D3
:1005D00007E000F1080978E705F1040975E73046FE
:1005E0007AE7206ABDE8F09F268A000010B5431C18
:1005F00002E010F8011B71B18107FAD14FF001320E
:1006000002C88C1A8C4314EAC211F9D0C01A0A0627
:1006100003D0C01E10BDC01A10BD0A0401D0801E38
:1006200010BD0902FCD0401E10BD10B5203AC0F02C
:100630000B80B1E81850203AA0E81850B1E81850E3
:10064000A0E81850BFF4F5AF5FEA027C24BFB1E820
:100650001850A0E8185044BF18C918C0BDE8104091
:100660005FEA827C24BF51F8043B40F8043B08BF9A
:100670007047D20728BF31F8023B48BF11F8012B61
:1006800028BF20F8023B48BF00F8012B70474FF00D
:10069000000200B5134694469646203922BFA0E8D2
:1006A0000C50A0E80C50B1F12001BFF4F7AF0907DE
:1006B00028BFA0E80C5048BF0CC05DF804EB8900CF
:1006C00028BF40F8042B08BF704748BF20F8022B12
:1006D00011F0804F18BF00F8012B7047704770472A
:1006E00070472DE9F0470D4699469246044600F1C1
:1006F00024080168880604D5E06921F01001216012
:1007000000E00120A84201DD471B00E00027A169AD
:100710007A1902EB0900081AA0612078C00602D4F9
:100720002046FFF763FE002608E0D4E901211AF80D
:1007300006009047206A401C761C20624E45F4DB80
:100740002078C0060AD52046FFF750FE06E0D4E91F
:10075000012130209047206A401C2062381EA7F1FA
:100760000107F4DC07E0D4E9012118F805009047FF
:10077000206A401C2062281EA5F10105F3DC2046FA
:10078000FFF74AFE2078000602D50220BDE8F08778
:100790000120FBE770472DE9FF4F0C461E464FF046
:1007A000FF378BB0D2E90001DDF860800A908A46FD
:1007B000C1F30A5505B93D46002108464FF0000037
:1007C000BAF1000F00F4400005DA00EB80004FF4AE
:1007D000400101EA50004FEA9059B9F1010F00DDE4
:1007E000B9460A9850EA4A000ED044F61050A5F2D5
:1007F000FF3545432F14B8F1000F1ED07542291E56
:100800001EDDC9F100021CE0B8F1010F4FF000003D
:1008100001D0302103E0F24305E02154401CB042F6
:10082000FBDB30460022002121540B99C1F80880DF
:10083000C1E900200FB0BDE8F08FBD1B6D1CDEE7E5
:100840004A4600DA694206A800F05CFA06AB93E873
:10085000070003AB83E8070050460A9900F03DFB10
:100860008DE80700A0F500501F3800900398002D78
:100870000ADD42F21F014A460844002303A90390FF
:10088000684600F0A6FD09E0A0F500504A461F3872
:10089000002303A90390684600F0B0FD8DE807002F
:1008A0000004000C03D04FF0FF30410800E0104678
:1008B000B8F1000F03D00022009215461EE0751E0D
:1008C00005D400F099F9303262556D1EF9D5B34662
:1008D0000122084302D000227F1C04E02078302847
:1008E00001D100227F1E002A099784D01DE0112D1E
:1008F00007DA00F081F9303262556D1C50EA0102CE
:10090000F5D1084302D00098C8B10EE00021681E5E
:1009100005E0235C625C63542254401E491C814202
:10092000F7DBAB46A81B401E0990002004F80B0023
:100930000B98099AC0F80880C0E9002B7AE71126C5
:100940004FF0000857E72DE9F04F88460446D21DC6
:1009500022F0070191B0D1E90001CDE90A0105F0CB
:1009600032FC02460B98C00F01D02D2007E0206812
:10097000810701D52B2002E0202101EAC000032AD3
:10098000099001D0072A05DB03464146204600F0C6
:1009900079F90BE12078800601D5E06900E00620B6
:1009A000B8F1650F814606D0B8F1660F18D0B8F1DE
:1009B000670F70D131E00020B9F1110F009001DB19
:1009C000112301E009F101030AAA01A90CA8FFF70C
:1009D000E2FEDDE90C70002609F10105834647E0DF
:1009E00001204B4600904FF000470AAA01A90CA82D
:1009F000FFF7D1FEDDE90DB00C995D46002610B978
:100A000009F101000D18B9EB050003D4C0F1FF3660
:100A100009F10105A5EB09002BE0B9F1010F01DA9D
:100A20004FF001090020B9F1110F0090484601DD97
:100A3000112300E003460AAA01A90CA8FFF7ABFEA8
:100A4000DDE90C704D4600268346207800070AD465
:100A5000AB4500DA5D4601A8012D04DD411911F80E
:100A6000011C302907D04F4502DA17F1040F04DAD0
:100A7000012082460FE06D1EEEE7002F02DCED1B29
:100A80003E4403E0781CA84200DD7D1CB81B00F149
:100A9000010A4FF000472078000703D4AA4501DB84
:100AA0004FF0FF3A0021B7F1004F0DF143088DF8E8
:100AB000431024D002202B23002F01DA7F422D2364
:100AC0000A21021EA0F1010000DC5FB197FBF1FCDE
:100AD00097FBF1F201FB1C7C17460CF1300C08F877
:100AE00001CDEEE7A8F1010003702188090501D5C9
:100AF000452100E06521A0F1010800F8011C0998DA
:100B00000FA9A1EB0807FF1D00B10120411901EB5E
:100B1000EA70A1693844081A401EA0612078C00616
:100B200002D42046FFF762FC099828B1D4E90121DC
:100B30009047206A401C20622078C00622D52046BB
:100B4000FFF754FC1EE0002E04DBB34502DD01A8D4
:100B5000805D00E03020D4E901219047206A401CEC
:100B60002062761CAAF101005FEA000A0AD100F0B7
:100B70003FF8C0680168405CD4E901219047206AD1
:100B8000401C2062281EA5F10105DCDC07E0D4E949
:100B9000012118F8010B9047206A401C2062381E82
:100BA000A7F10107F3DC2046FFF736FC032011B064
:100BB00041E6000001694A1C02610878704700B5EF
:100BC0008FB0CDE901310021059105497944CDE986
:100BD000031011466846FFF76DFC0FB000BD000022
:100BE000E5FFFFFF0A6802F8010B0A60704700008A
:100BF00000487047541E002030B5B0F10A024FEA99
:100C0000900E71F100034EEA817EB0EB0E0061EBB5
:100C100091014FEA101E4EEA017E10EB0E0041EBEF
:100C200011114FEA102E4EEA016E10EB0E0041EB4F
:100C300011214FEA104E4EEA014E10EB0E0041EB2F
:100C40001141401841F100014FEAD00040EA4170E3
:100C50004FEAD10110EB80054FEA810444EA907419
:100C600044EB01046D1944EB0404521BA3414FF003
:100C7000000348BF0A3200D530BD401C41F10001DD
:100C800030BD00002DE9F0411F46044603260168EF
:100C9000072A01F4006004DB08B116A505E016A5DB
:100CA00003E008B115A500E015A521F010002060B3
:100CB000A069C01EA0610FB1401EA0612046FFF7D1
:100CC00095FB4FB1D4E9012138469047206A401C7A
:100CD0002062C01C206206E0206AFAE7D4E9012104
:100CE00015F8010B9047761EF8D22046FFF794FBCB
:100CF000BDE8F0814E414E006E616E00494E4600E7
:100D0000696E66002DE9F047814616468AB035487F
:100D100078440DC88DE80D0032487844801C03AC3F
:100D20000DC884E80D0041F69B300844372190FB44
:100D3000F1F290FBF1F5A5F1800501FB12041B3CDB
:100D400002D56442012000E00020DFF898A0804630
:100D50000027FA44AAF1BE0A0EE0E0070AD03246A4
:100D6000684607EB470101230AEB810100F046FBCF
:100D70008DE8070064107F1C002CEED1194F7F44D2
:100D8000AE3F19E0E80715D007EB04100DF1180A83
:100D900090E80E008AE80E00C068F04201D1981970
:100DA00008903246012306A903A800F027FB03ABF5
:100DB00083E807006D10641C002DE3D14FF00103A0
:100DC00032466946B8F1000F03A802D000F001FBDB
:100DD00001E000F013FBC9E90001C9F808200AB0DE
:100DE000BDE8F0876882000000487047341E00208C
:100DF0007546FFF7F9FFAE4605006946534620F0F9
:100E00000700854618B020B5FFF752FABDE820402C
:100E10004FF000064FF000074FF000084FF0000BB6
:100E200021F00701AC46ACE8C009ACE8C009ACE869
:100E3000C009ACE8C0098D46704710B50446AFF351
:100E400000802046BDE81040FFF71DBA4FF0013C7E
:100E500050F8042B51F8043B9A4221D1A2EB0C0329
:100E6000934313EACC1317D150F8042B51F8043BE9
:100E70009A4215D1A2EB0C03934313EACC130BD186
:100E800050F8042B51F8043B9A4209D1A2EB0C0311
:100E9000934313EACC13DBD04FF00000704700BF40
:100EA000D01A01BAB1FA81F101F0180122FA01F069
:100EB000CB40C1F12001DBB2C0B2C01A2CFA01F361
:100EC000D11A914311EAC311E6D1704701491820A4
:100ED000ABBEFEE72600020070475FEA400C08BF89
:100EE00091F0000F4FEA8C234FEAC12243EA51519F
:100EF0004FEA1C5018BF00F5F0404FEA300018BF11
:100F000041F000415FEA6C5C00F02980BCF1FF3FDA
:100F100008BF40F080407047130C06BF12044FF02A
:100F2000100C4FF0000C130E04BF12020CF1080C51
:100F3000130F04BF12010CF1040C930F04BF9200B5
:100F40000CF1020CD30F04BF52000CF1010C11463E
:100F50004FF00002A0F11F00A0EB0C00704711F051
:100F6000004F08BF704731F000413FF4D5AF0B0C84
:100F700006BF09044FF0100C4FF0000C0B0E04BF1D
:100F800009020CF1080C0B0F04BF09010CF1040C51
:100F90008B0F04BF89000CF1020CCB0F04BF49007A
:100FA0000CF1010CCCF12003A0EB0C0022FA03F3AE
:100FB00002FA0CF241EA030100F10100704720F04F
:100FC0007F4C80EA030023F07F47ACEB070303F577
:100FD0007C5300F0004003F1FF032DE980494FEA04
:100FE000154B09B44FEA144325EA0B4E24EA034893
:100FF0000FF2042606EB132749083E785FEA320217
:1010000003FB0667C7F5000707FB06F64FEA5437F0
:101010004FEAD64606F1020607FB066CCCF1005CEF
:101020004FEA1C472CEA074C07FB06F40CFB06F5BD
:1010300004EB15464FEA961634BF00204FF00040EF
:101040004FEAD13706FB07FC4FEA1C4C0CFB0BF7B1
:10105000D21B03FB0CF761EB07010CFB0EF7B0EBA7
:10106000074072EB17420CFB08F734BFA2EB0742B4
:10107000B2EB074261EB17414FEA0C444FEA91078C
:1010800006FB07FC4FEA1C4C0CFB0BF7B0EBC74010
:1010900072EB573203FB0CF734BFA2EBC742B2EB43
:1010A000C74261EB57310CFB0EF7B0EBC70072EB98
:1010B00057720CFB08F734BFA2EBC702B2EBC702B2
:1010C00061EB5771039F4FEA816141EA921104EB92
:1010D000CC044FEAD1374FEA826206FB07FC42EAB2
:1010E00090124FEA80604FEA1C4C0CFB0BF7D21BAE
:1010F00003FB0CF761EB07010CFB0EF7B0EB0740AD
:1011000072EB17420CFB08F734BFA2EB0742B2EBBD
:10111000074261EB17414FEA8C554FEA910704EB08
:101120009C2406FB07FC4FEA1C4C0CFB0BF7B0EBB6
:10113000C74072EB573203FB0CF734BFA2EBC74238
:10114000B2EBC74261EB57310CFB0EF7B0EBC700B7
:1011500072EB57720CFB08F734BFA2EBC702B2EB7D
:10116000C70261EB577115EB4C254FEA816141EAEB
:1011700092114FEA82624FEAD13742EA901206FB9F
:1011800007FC44F100044FEA80604FEA1C4C0CFB62
:101190000BF7D21B03FB0CF761EB07010CFB0EF7FF
:1011A000B0EB074072EB17420CFB08F734BFA2EB21
:1011B0000742B2EB074261EB174115EB1C154FEAF2
:1011C000813141EA92414FEA823242EA90424FEA4B
:1011D00080304FEA0C7644F1000448EA03434EEABB
:1011E0000B484FF0000EB2EB080C71EB030724BF65
:1011F000624639464EEB0E0E4FF0000B001852417E
:1012000049414BEB0B0BB2EB080C71EB03077BF185
:10121000000B24BF624639464EEB0E0E4FF0000B1A
:101220000018524149414BEB0B0BB2EB080C71EB30
:1012300003077BF1000B24BF624639464EEB0E0ECE
:1012400051EA020718BF46F0010616EB0E7655F17B
:10125000000254F1000103D5BDE88901BDE8008812
:10126000BDE88901BDE80048B619524141EB0101D2
:10127000A3F10103704780807F7E7D7C7B7A797843
:10128000777676757473727171706F6E6E6D6C6C4B
:101290006B6A6A69686867666665646463636261ED
:1012A0006160605F5F5E5E5D5D5C5C5B5B5A5A596E
:1012B00059585857575656555555545453535252DA
:1012C0005251515050504F4F4F4E4E4D4D4D4C4C32
:1012D0004C4B4B4B4A4A4A4949494848484747477B
:1012E00047464646454545444444444343434342B8
:1012F000424242414141002B9C4630D477002BD0E2
:101300001CB54FEA370703B44FF010004FF010013F
:10131000BAF1000F06D0BCF1000FDCBF40F00800AE
:1013200040F008014FF000000FBCBDE810400BF189
:10133000010BBBF1010F08BF5FEA170722BF12F1D3
:10134000010211F101014FF0004143F1000300F0EF
:10135000004043EA00007047F9D35708D0E746EA57
:10136000064613F1400F4FEA16461FDD13F1200F1A
:10137000DFBF16430A46002120335B42BED0C3F1D3
:10138000200746EA064602FA07F74FEA164646EAFB
:101390000706C3F1200722FA03F201FA07F721FA40
:1013A00003F14FF0000342EA0702A7E746EA02060C
:1013B00046EA06464FEA164646EA0106BCBF46EA3A
:1013C0000646360C4FF000034FF000024FF00001CC
:1013D00094E72DE9804C9A46934670B491E8380022
:1013E00007C831EA400C48BF34EA430C03D5FFF785
:1013F000E6FDFFF780FFF0BCBDE8008C2DE9804CD6
:101400009A46934670B491E8380007C810F0804FB0
:1014100008BF13F0804F03D100F005F8FFF76BFF12
:10142000F0BCBDE8008C20F07F4780EA030023F089
:101430007F4C07EB0C03A3F57C5300F00040A3F1B5
:10144000FE0392F0000F00F0B38095F0000F00F063
:1014500077802DE901494FEA11404FEA144621EA0D
:10146000004800FB06FC24EA064708FB06F607FBDB
:1014700008F800FB07F718EB06484CEB164C4FEA50
:10148000124B18EB07484FEA15464CEB174022EA7F
:101490000B4E0BFB06FC25EA06470EFB06F607FB88
:1014A0000EFE0BFB07F71EEB064E4CEB164C4FF0F7
:1014B00000061EEB074E4CEB174B18EB0B0840F1E8
:1014C000000018EB0E0B58EB000840F100008F1ADB
:1014D0004FF000013CBFC943661B14BFB5EB040CC1
:1014E00000213CBFC943F61B4FEA17444EEA8E0E5B
:1014F00027EA04454FEA1C4704FB07622CEA074C25
:1015000005FB07F70CFB05F604FB0CFC16EB074686
:1015100042EB174216EB0C4642EB1C421BEB060655
:1015200058EB0202414146EA9E0601D5BDE8018919
:10153000B619524141EB0101A3F10103BDE8018954
:101540004FEA14454FEA114724EA054621EA074CC1
:1015500005FB07F406FB07F70CFB06F105FB0CFC8B
:1015600011EB074144EB17444FEA124711EB0C41D2
:1015700044EB1C4422EA074C05FB07F206FB07F785
:101580000CFB06F605FB0CFC16EB074642EB17427C
:1015900016EB0C4642EB1C456A1854F1000148BF9B
:1015A0007047B619524141EB0101A3F101037047A5
:1015B00095F0000F37D04FEA11424FEA144721EA65
:1015C000024624EA074C02FB07F106FB07F70CFB77
:1015D00006F402FB0CFC14EB074441EB17414FEA05
:1015E000154714EB0C4441EB1C4125EA074C02FB68
:1015F00007F506FB07F70CFB06F602FB0CFC16EBE7
:10160000074645EB174516EB0C4645EB1C421219F5
:1016100051F1000148BF7047B619524141EB010139
:10162000A3F1010370474FEA14454FEA114724EA3A
:10163000054621EA074C05FB07F106FB07F70CFB03
:1016400006F24FF0000605FB0CFC12EB074241EBE3
:10165000174112EB0C4251EB1C4148BF70479218E6
:1016600041EB0101A3F101037047FEE70548017852
:10167000002905D0002101703221032002F034BA84
:101680007047000074040020042808DD202806D0DC
:10169000212804D0222802D102490120087000200C
:1016A00070470000740400200020704710B500222D
:1016B0000449054803F0DDFA0449034803F0D0FA71
:1016C000002010BD540F00209C0600206C0B002051
:1016D00010B50146034803F0C3FA024803F0A5FA27
:1016E000002010BD9C0600200020704770470000BD
:1016F0002DE9F04113480168890421D5461431468B
:101700000660114F384600F037FB104C012500B938
:1017100025703146384600F02FFB012810D1207883
:1017200000280DD00A49002008700A4908700A49AB
:1017300008700A4908600A490D700A49207008704B
:10174000BDE8F081143C0140000402400600002086
:1017500004000020030000200200002008000020F8
:10176000050000200C0400200E4800B5016887B079
:1017700041F0020101600068694600F00200059036
:101780004FF4005000900848019001200290074853
:1017900000F004FA00221146282000F06DFB07B08B
:1017A00000BD00003038024000003110000402404B
:1017B00072B6FEE7002229B101291AD002291BD0F6
:1017C0004FF440720E490B6823F440730B600B68B2
:1017D00013430B600A6822F0F8020A600A680223C9
:1017E00003EBC00002430A60086840F480300860E0
:1017F00070474FF48072E5E74FF40072E2E70000B3
:10180000103C02401348016889050FD5016821F496
:1018100000710160016841F400610160016821F418
:1018200000610160016841F40071016001684905CF
:101830000FD5016821F480610160016841F4805195
:101840000160016821F480510160016841F4806108
:1018500001607047003C024008490A6822F4407267
:101860000A600A6842F004020A600A684FF4803392
:1018700043EA002002430A6070470000103C024027
:10188000064A136823F440731360136813601368E7
:1018900043F001031360017070470000103C0240E8
:1018A000094910B50C6824F440740C600C6844F4C9
:1018B00040740C600C6844F001040C600260BFF3DB
:1018C0006F8F436010BD0000103C0240074A136850
:1018D00023F440731360136843F480731360136838
:1018E00043F001031360018070470000103C024088
:1018F000074A136823F440731360136843F40073BA
:101900001360136843F00103136001607047000027
:10191000103C02401C490868C2061C4805D5C26933
:1019200042F01002C26110220A600A68920605D5D0
:10193000C26942F00802C26120220A600A685206A7
:1019400005D5C26942F00402C26140220A600A68F9
:10195000120605D5C26942F00202C26180220A6005
:101960000A68D20506D5C26942F00102C2614FF48D
:1019700080720A600A68920705D5C26942F02002A7
:10198000C2610220086070470C3C024064190020CC
:1019900070B5114904460020C86100F0FFF9064601
:1019A0000E4D09E0601C07D024B100F0F7F9801B50
:1019B000A04201D9032070BD2868C003F2D4286872
:1019C000C00701D001202860286810F4F970F2D017
:1019D000FFF7A0FF012070BD641900200C3C0240FD
:1019E00010B50446802001F0ADFF00EE100AF7EEBE
:1019F000040AB8EE400A20EE200A84ED000A10BD69
:101A000010B50446802001F08FFF00EE100ADFEDD4
:101A1000040AB8EE400A20EE200A84ED000A10BD48
:101A20000AD7A33C70B5044600F0B8F90546601C1F
:101A300002D004480078044400F0B0F9401BA042F2
:101A4000FAD370BD780400202DE9F04704462248FF
:101A50000F46017E01290AD00121804601764CF211
:101A600050394846FFF794FF020003D02FE00220D0
:101A7000BDE8F0874FF0FF3038602068174D01282F
:101A800001D0A6681CE0207C6168FFF7E5FE4846AF
:101A9000FFF77EFF0246286820F00400286014E06B
:101AA000217C3046FFF786FE4846FFF771FF0200B3
:101AB000286820F0FA00286001D03E6005E0761C1E
:101AC000D4E902100844B042EAD8FFF79BFE002197
:101AD00088F818101046CBE764190020103C02402B
:101AE0000348016841F00041016000207047000098
:101AF000103C02402DE9F0471B4E05461446307E4F
:101B00001F468946012808D0012030764CF2503813
:101B10004046FFF73DFF18B114E00220BDE8F08712
:101B20009DB1012D16D0022D19D022463B464846C4
:101B3000FFF7B6FE4046FFF72BFF0C490A6822F07C
:101B400001020A6000213176E8E7E1B24846FFF77A
:101B500097FEEFE7A1B24846FFF7B8FEEAE7214655
:101B60004846FFF7C5FEE5E764190020103C024037
:101B7000074900200A68002A09DA054A054B0C3A91
:101B80001360054B13600968002900DA01207047D3
:101B9000103C024023016745AB89EFCD2DE9F84F9A
:101BA000DFF8B4A1002201240AF1040B03254FF051
:101BB0000F090BF1040E00BF0B6804FA02F6334064
:101BC000B34272D10F7907F00307012F01D0022F22
:101BD00016D187684FEA420805FA08FC27EA0C0785
:101BE000D1F80CC00CFA08FC4CEA070CC0F808C08D
:101BF0004768B7430E79C6F3001696403E434660E9
:101C00000E79F643B6070DD0C768560005FA06FCF4
:101C100027EA0C07D1F808C00CFA06FC4CEA070CBE
:101C2000C0F80CC00E7906F00306022E10D1D608BB
:101C300000EB8608D8F8206057074FEAD76C09FAFE
:101C40000CF7BE430F6907FA0CF73743C8F820704A
:101C500006684FEA420C05FA0CF7BE430F7907F00D
:101C6000030707FA0CF7374307604E68F6006DD597
:101C70003A4E376847F480473760366822F00307EA
:101C800006F480460096364E07EB060CDCF8086832
:101C900097073F0F09FA07F826EA0806DFF8C4801D
:101CA000404503D14FF000081EE04FE0DFF8B88058
:101CB000404502D14FF0010816E0DFF8B080404502
:101CC00002D14FF002080FE0DFF8A480404502D1B6
:101CD0004FF0030808E0DFF89C80404502D14FF048
:101CE000040801E04FF0070808FA07F848EA060878
:101CF000CCF80888DAF800605746D1F804C09E4353
:101D00005FEACC3C00D51E433E60DBF800605F46D6
:101D1000D1F804C09E435FEA8C3C00D51E433E6070
:101D2000DEF800607746D1F804C09E435FEACC2C11
:101D300000D51E433E60084F0C373E68D1F804C002
:101D40009E435FEA8C2C00D51E433E60521C102A35
:101D5000FFF432AFBDE8F88F003C01404438024048
:101D60000030014000000240000402400008024030
:101D7000000C0240001002400069084000D0012021
:101D80007047426921EA02030A4043EA0241816145
:101D900070470AB1816170470904FBE70148806818
:101DA00070470000780400200248816802781144DE
:101DB00081607047780400200B4810B5016841F439
:101DC00000710160016841F480610160016841F4C3
:101DD00080710160032000F06FF80F2000F006F81A
:101DE00000F024F8002010BD003C024070B50D4DFD
:101DF00004464FF47A712878B1FBF0F00A4909687B
:101E0000B1FBF0F001F00FFA48B9102C07D2002214
:101E10002146501E00F030F800206C6070BD01209B
:101E200070BD000078040020840400200A4808B532
:101E3000016841F480410160006800F48040009036
:101E40000548001F016841F080510160006800F002
:101E50008050009008BD000044380240002809DB93
:101E600000F01F02012191404009800000F1E020B4
:101E7000C0F8001170470000F0B40E4B1B680C4610
:101E8000C3F30223C3F10705042D00D90425191D4E
:101E9000072901D2002300E0DB1E012606FA05F126
:101EA000491E214099409E40761E16403143F0BCA9
:101EB00004F0A1B90CED00E0064900F00702086843
:101EC0004FF6FF03184040EA0220034A104308601F
:101ED000704700000CED00E00000FA057047006854
:101EE000416200207047F0B50368586A39B19C6AB6
:101EF0004FF4827600EB144400204D1E0AE040EAC5
:101F0000024098620FE006EB8007DF59401C04EBAB
:101F10001744C0B2A842F6D344EA02404FF480729C
:101F200002EB810158500020F0BDD0F8040403F00A
:101F300025B9C1EBC10200EB8202D0F80404926C17
:101F400003F092B8C1EBC10200EB8202D0F80404A6
:101F5000D2F8082203F0DCB8D0F8040403F010B97A
:101F600070B504460B0601F00F00C0EBC00104EB96
:101F700081014FF001024FF0000503D581F83D20AB
:101F80003C3103E081F8FD5101F5FE71087094F8D1
:101F9000BC03012808D084F8BC23206803F0AAFC05
:101FA00084F8BC53002070BD022070BD70B504469B
:101FB00001F00F006268904201D9012070BD0B064C
:101FC00001F00F01C1EBC10104EB81014FF00102EF
:101FD0004FF0000503D581F83D203C3103E081F846
:101FE000FD5101F5FE718D70087094F8BC03012855
:101FF00008D084F8BC23206803F076FE84F8BC5334
:10200000002070BD022070BD01F00F01C1EBC101C5
:1020100000EB8100D0F8140270472DE9F04104462E
:102020000F0601F00F00C0EBC00104EB81014FF07F
:1020300001064FF0000503D581F83D603C3103E017
:1020400081F8FD5101F5FE7108708A60CB704A7805
:1020500002B1C880022B00D10D7194F8BC03012895
:1020600009D084F8BC63206803F0A0FB284684F8FC
:10207000BC53BDE8F0810220FBE770B50C4601F0CF
:102080000F05C5EBC50100EB8101C1F81032C1F8A5
:1020900008220023C1F8143281F8FD3181F8FC5187
:1020A000036901F5FE71012B00D10A612207027C50
:1020B000006803D003F070FE002070BD03F05CFDEB
:1020C000FAE770B504460D4601F00F0061688842DA
:1020D00001D9012070BD29064FF000064FF0010222
:1020E00007D5C0EBC00104EB810181F83D203C31F4
:1020F00007E0C5EBC50104EB810181F8FD6101F545
:10210000FE718A70087094F8BC03012807D084F827
:10211000BC23206803F014FE280702D007E0022049
:1021200070BD217C04F57172206803F0B1FD84F864
:10213000BC63002070BD70B50C4601F00F05C5EB07
:10214000C50100EB81010B658A6400234B65012307
:1021500081F83D3001F83C5F0369012B00D10A6131
:102160002207027C006803D003F016FE002070BD39
:1021700003F002FDFAE700002DE9FC5F0568044664
:10218000284603F032FF00287ED1206803F059FF73
:10219000002879D0206803F054FF800704D5216817
:1021A000486900F002004861206803F04AFFC10658
:1021B00004F57170009034D52068816921F0100118
:1021C00081612F6A07F00F00C0EBC00004EB8006AE
:1021D000C7F3434006F5FE76022802D0062811D048
:1021E0001AE047F6F070074216D0C7F30A121746F6
:1021F0002846F16803F029FFF0683844F060B069C0
:10220000384408E008222846009903F01EFFB06910
:10221000C7F30A110844B0612068816941F01001D8
:102220008161206803F00DFF00034FF0010A4FF0B9
:10223000080B5BD50026206803F0E2FE0746DFF8B6
:10224000689351E0F8074DD0F1B2206803F0F1FE39
:102250008046C00707D005EB4611C1F808AB3146F0
:10226000204602F02BF95FEA087022D505EB4611F3
:10227000C1F808BB2068016C00EB46100191D0F852
:10228000082B494507D900E08BE1110403D54FF431
:102290000041C0F8081B204600F073FA0198484539
:1022A00007D92069012804D120680121009A03F090
:1022B000EFFC5FEAC86004D505EB46111020C1F8B9
:1022C000080B5FEA886004D505EB46112020C1F8B1
:1022D000080B5FEA884005D505EB46104FF4005126
:1022E000C0F8081B7F08761C002FABD1206803F0D4
:1022F000A8FE40034FF000095CD5206803F079FE8A
:102300000746002654E0F80750D0F1B2206803F0E9
:102310007EFE8046C00723D006F00F020AFA02F0C4
:10232000D5F834288243C5F8342805EB4610C0F8A8
:1023300008A9206901280FD1C6EBC60004EB800074
:10234000D0E911211144816436B9206D20B920688B
:102350000121009A03F09CFCF1B22046FFF7E9FD51
:102360005FEA087003D505EB4611C1F808B95FEACA
:10237000C86004D505EB46111020C1F808095FEAD2
:10238000486004D505EB46114020C1F808095FEA12
:10239000887004D505EB46110220C1F808095FEAF0
:1023A000086003D53146204602F0EEF87F08761C1F
:1023B000002FA8D1206803F044FE002811DAD5F8D8
:1023C000040820F00100C5F8040894F8F40301287B
:1023D00029D0204600F0B9F92068416901F0004198
:1023E0004161206803F02DFE00050BD5D5F80808E3
:1023F000C00702D0204600F0EDF92068416901F4E1
:1024000000614161206803F01CFEC00468D5D5F866
:10241000040820F00100C5F804081021206803F02A
:10242000C5FD002127E084F8F49300212046FFF742
:1024300055FDD1E705EB41104FF67F32C0F8082972
:10244000D0F8003923F40013C0F80039D0F800396F
:1024500043F00063C0F80039C0F8082BD0F8002B17
:1024600022F40012C0F8002BD0F8002B42F00062DA
:10247000C0F8002B491C60688842DBD8D5F81C08DE
:1024800040F00110C5F81C08206B60B1D5F8840835
:1024900040F00B00C5F88408D5F8440840F00B0064
:1024A000C5F844080CE0D5F8141842F22B0001439B
:1024B000C5F81418D5F8100840F00B00C5F810083E
:1024C000D5F8000820F4FE60C5F80008217C2068DB
:1024D000009A03F0DDFB2068416901F480514161FD
:1024E000206803F0AEFD800415D5206803F09EF946
:1024F000206803F06DFDE06000F0C6FA0146227B23
:10250000206803F0D9FD204600F00CF920684169ED
:1025100001F400514161206803F093FD000707D5E5
:10252000204600F016F92068416901F00801416178
:10253000206803F086FDC00208D50021204600F087
:1025400035F82068416901F480114161206803F089
:1025500078FD800208D50021204600F02BF8206885
:10256000416901F400114161206803F06AFD4000F7
:1025700007D52046FFF7D9FC2068416901F080416A
:102580004161206803F05DFD40070AD52068456879
:10259000680702D52046FFF7DFFC20684168294321
:1025A0004160BDE8FC9F00000A30544FD0F804049D
:1025B00002F036BED0F8040402F042BE2DE9F0412C
:1025C0008AB0040005D094F8BD032668002520B128
:1025D00008E001200AB0BDE8F08184F8BC53204631
:1025E00000F05EF8032084F8BD03F06BC00500D452
:1025F0002561206803F0BAFA04F110012822884608
:102600006846FEF712F894E80F0003F01DF9022661
:10261000C8BB0021206803F026FD002001270EE042
:10262000C0EBC00104EB810181F83D7001F83C0F63
:10263000C880CD708D60CD60401CC0B24D616168B6
:102640008142EDD8002011E0C0EBC00104EB810114
:1026500081F8FD5181F8FC0181F8FF51C1F8045265
:10266000C1F80852401CC0B2C1F8105261688142E2
:10267000EAD8282241466846FDF7D7FF94E80F00C4
:1026800003F0BAF910B184F8BD63A2E784F83850BA
:1026900084F8BD73206803F0A1F900209AE70000D8
:1026A00010B586B0044614216846FDF7F0FF206897
:1026B000B0F1A04F2FD119480021026842F0010269
:1026C0000260006800F0010005904FF4C0500090D7
:1026D0000220CDE90101032003900A2004906946FD
:1026E0000F48FFF75BFA0D48001D016841F08001BB
:1026F00001600A481430016841F4804101600068BB
:10270000002200F48040059011464320FFF7B4FBFF
:102710004320FFF7A3FB06B010BD00003038024095
:102720000000024070B50446C0680125022801D0AF
:10273000FFF73EF82946D4F8040402F0EDFDD4F882
:102740000404BDE8704002F0A0BDD0F8040402F01B
:10275000C9BDD0F8040402F0CFBD10B5044690F80E
:10276000BC0301280BD0012084F8BC0384F8381086
:10277000206803F08FFC002084F8BC0310BD022009
:1027800010BDD0F8042400F57171104602F0D0BDE0
:1027900010B50446006894F8BC13012906D0012145
:1027A00084F8BC13A16A012902D008E0022010BD00
:1027B000A169012903D0816B41F4803181632068D4
:1027C00003F0DEFB206803F0FBF8002084F8BC0374
:1027D00010BD000010B50446D0F8040402F0EAFD74
:1027E0002068D0F8001E41F00101C0F8001E206AE8
:1027F000002804D00248016841F00601016010BDC4
:1028000010ED00E02DE9F843044600684FF001099F
:10281000C1074FF0000601D1400727D5DFF81C8122
:10282000C8F86860FFF7BAFA0746454D05E000BFF3
:10283000FFF7B4FAC01B022857D828680001F7D464
:1028400060688101207A41EA00703D498431086066
:10285000C8F86890FFF7A2FA074604E0FFF79EFA6F
:10286000C01B022841D828680001F7D520788007CE
:1028700052D533484030016841F080510160006812
:10288000304D00F080500090286840F4807028603F
:10289000FFF784FA074604E0FFF780FAC01B02281E
:1028A00023D82868C005F7D5254D7035286810F461
:1028B000407020D0A18901F4407181421BD028686A
:1028C00020F440712048C0F8009006602960286814
:1028D000C00710D0FFF762FA064641F2883707E0DA
:1028E000FFF75CFA801BB84202D90320BDE8F883E9
:1028F00028688007F4D5E1681148C1F30122083047
:10290000032A12D0016821F4F81101602868A18916
:10291000C1F30B01084328602078000703D50B4959
:10292000207CC1F8E0010020E0E70268084B22F4B7
:10293000F81219400A430260E8E70000000047422D
:102940000038024000700040400E474200104742ED
:10295000FFFCFF0F2DE9F0470E46050065D0DFF8BC
:102960001481D8F80000F7B200F00700B04207D297
:1029700088F80070D8F8000000F00700B04254D189
:1029800028683D4C810712D5400703D5206840F4E4
:10299000E05020602878000703D5206840F46040AC
:1029A00020602068A96820F0F000084320602878A3
:1029B000C0072DD0304968680839012812D0022894
:1029C00013D0032811D00968890700292DDA21685E
:1029D00021F0030101432160FFF7E0F9814641F254
:1029E000883A0EE009688903EFE709688901ECE796
:1029F000FFF7D4F9A0EB0901514502D90320BDE846
:102A0000F0872068696800F00C00B0EB810FEFD10F
:102A1000D8F80010404601F00701B14207D907700D
:102A2000006800F00700B04201D00120E7E72878F5
:102A3000400705D52068E96820F4E050084320608D
:102A40002878000706D52068296920F4604040EA0C
:102A5000C100206000F01EF82168084AC1F303118C
:102A6000515CC8400649086006480068FFF7BEF997
:102A70000020C4E7003C024008380240AC65000872
:102A8000840400207C040020014800687047000096
:102A900084040020154810B5006810F00C0214489A
:102AA00013D01449042A0FD0082A0ED10F4C241F2A
:102AB0002268236802F03F025B0207D52068C0F35A
:102AC0008810A0FB010106E0084610BD2168C1F393
:102AD0008811A1FB00010023FDF7FCFB2168C1F375
:102AE0000141491C4900B0FBF1F010BD083802401B
:102AF0000024F40040787D012DE9F84F04006ED0E9
:102B00002078DFF84C93C007A9F104054AD009F1F9
:102B100004000168C1F38101012908D00068C0F3F5
:102B2000810002280AD1D9F80000400206D52868A1
:102B3000800337D560680028E1D033E06068B0F5E5
:102B4000803F10D0B0F5A02F286810D020F480303E
:102B50002860286820F4802028606068A8B1FFF70A
:102B60001DF906460DE0286840F48030F4E740F493
:102B700080202860F7E700BFFFF710F9801B64286A
:102B800073D828688003F7D50CE0FFF707F90646ED
:102B900005E000BFFFF702F9801B6428F0D8286821
:102BA0008003F7D42078DFF8AC8280074FF0000A6A
:102BB0003ED5A748001D016811F00C0F08D0006831
:102BC000C0F3810002280BD1D9F80000400207D4DD
:102BD0002868800716D5E068012800D112E033E1AB
:102BE000E068B8B10120C8F80000FFF7D7F8064642
:102BF00005E000BFFFF7D2F8801B0228C0D8286884
:102C00008007F7D52868216920F0F80040EAC10064
:102C100028600DE0C8F800A0FFF7C0F8064604E001
:102C2000FFF7BCF8801B02281FD828688007F7D45C
:102C30002078000722D5864F87486169703771B1C7
:102C400001210160FFF7AAF8064604E0FFF7A6F8A5
:102C5000801B022809D838688007F7D50EE0C0F835
:102C600000A0FFF79BF8064605E082E0FFF796F824
:102C7000801B02287DD838688007F7D42078400769
:102C800068D5DFF8CCB100270BF13C0BDBF8000076
:102C9000C0000BD4DBF8001041F08051CBF80010DD
:102CA000DBF80000012700F0805000906B4E306888
:102CB000C00510D4306840F480703060FFF76EF8C3
:102CC000009005E0FFF76AF80099401A022850D8F2
:102CD0003068C005F6D55E4EA0686C3601280FD06E
:102CE0000528306810D020F001003060306820F0F6
:102CF00004003060A068B8B1FFF750F800900FE012
:102D0000306840F00100F4E740F004003060F7E77D
:102D1000FFF744F80099411A41F28830814266D8A1
:102D200030688007F4D50EE0FFF738F8009007E030
:102D3000FFF734F80099411A41F28830814256D8A1
:102D400030688007F4D42FB1DBF8001021F08051F7
:102D5000CBF80010A069C8B33D49091D0968C1F34B
:102D6000810102294AD00228504607D0C8F86000E5
:102D700000E03CE0FFF712F804463BE04746C8F8A5
:102D80006000FFF70BF8064605E000BFFFF706F806
:102D9000801B02282BD828688001F7D4D4E90701CA
:102DA0000843A16A2E4A490802EB0141626A41EADE
:102DB0008211084394F82C1040EA0161C9F8001010
:102DC00001203866FEF7EAFF044606E03EE000BF59
:102DD000FEF7E4FF001B022809D828688001F7D518
:102DE00034E000BFFEF7DAFF001B022802D90320FF
:102DF000BDE8F88F28688001F4D427E00128F7D0D7
:102E0000D9F80000E26900F4800191421CD1226AE5
:102E100000F03F01914217D147F6C071626A01404C
:102E2000B1EB821F10D1A26A4FF0FF3300F44031A2
:102E300003EB5202B1EB024F06D194F82C1000F0D4
:102E40007060B0EB016F01D00120D1E70020CFE727
:102E50000438024000004742800E474200700040A4
:102E60000000FFFF70B5040002D0607F10B106E0E3
:102E7000012070BD00202077204600F049F8022094
:102E800060772168CA204862216853204862204642
:102E900001F0CCFBFF25042618BB206881681B4A83
:102EA000114081602168886862681043D4E9042376
:102EB0001A43104388602168E0680861206801694E
:102EC000228941EA024101612068C16821F0800144
:102ED000C16020688068800607D4204600F036F87C
:102EE00018B1206845626677C2E72068016C21F45A
:102EF000802101642068016CA2691143016420688B
:102F0000456201206077002070BD0000BFFF8FFF89
:102F100010B586B0044614216846FDF7B8FB094990
:102F2000206888420CD1022000900002039068467D
:102F3000FFF768FC08B1FEF73BFC0349012008607D
:102F400006B010BD002800403C0E474270B5044654
:102F50000068C16821F0A001C160FEF71FFF0546AF
:102F60004FF47A7607E000BFFEF718FF401BB0422F
:102F700001D9032070BD2068C0688006F4D5002008
:102F800070BD70B5040009D0606A002540B12561AC
:102F90006561A56294F8510040B10CE0012070BD5C
:102FA0006068B0F5827FF4D0E561F2E784F85050B4
:102FB000204600F045F8022084F85100206801689E
:102FC00021F040010160A088218900F4827001F4A1
:102FD00004410843A18901F400610843217C01F008
:102FE00002010843217D01F001010843218B01F416
:102FF00000710843217F01F03801084394F8201044
:1030000001F080010843218D01F40051084321683B
:103010000860A069042101EA104094F8241001F02E
:1030200010010843216848602068C16921F40061EB
:10303000C1616565012084F85100002070BD000069
:1030400010B586B0044614216846FDF720FB1349ED
:103050002068884220D112480021026842F4805240
:103060000260006800F4805005900D481438026832
:1030700042F001020260006800F001000590A0200B
:1030800000900220CDE90101032003900520049067
:1030900069460448FEF782FD06B010BD00300140CD
:1030A00044380240000002402DE9F84F044690F8F1
:1030B000500000271D461646894601280DD04FF0C6
:1030C000010B84F850B0FEF769FE804694F8510079
:1030D000BA46012804D0022793E00220BDE8F88F09
:1030E000B9F1000F73D0002E71D0032084F8510085
:1030F000C4F854A0C4F83090A686E686C4F838A078
:10310000A4F83CA0A4F83EA0C4F844A0C4F840A091
:10311000A068B0F5004F09D12068016821F0400196
:1031200001602068016841F4804101602068016805
:10313000490603D4016841F040010160E068B0F540
:10314000006F606803D030B3012E24D041E008B195
:10315000012E1CD1206B21680088C86006E0206821
:103160008168890709D5216B0988C160206B801CA3
:103170002063E08E401EE08609E0FEF70FFEA0EB24
:103180000800A84202D3681C01D031E07DB3E08E74
:103190000028E4D120E0206B21680078087306E065
:1031A00020688168890709D5216B09780173206B34
:1031B000401C2063E08E401EE0860AE0FEF7EEFD34
:1031C000A0EB0800A84203D3681C02D010E017E06F
:1031D0006DB1E08E0028E3D142462946204601F039
:1031E000CBFA08B120206065A06818B106E0FFE7BF
:1031F000032706E02068C16880680090606D00B118
:10320000012784F851B084F850A0384666E74FF0A3
:10321000E0210428086903D020F004000861704709
:1032200040F00400FAE710B5401EB0F1807F01D3F2
:10323000012010BD4FF0E02460610F21601702F003
:10324000DAFF0020A06107202061002010BD704738
:103250007047000070B590F83C20012A2CD0012462
:1032600080F83C40022280F83D2003685A689D683F
:1032700022F070060A6832435A60104B02689A4284
:103280000ED0B2F1804F0BD00D4B9A4208D00D4BAF
:103290009A4205D00C4B9A4202D00C4B9A4204D170
:1032A000496825F080031943916080F83D40002172
:1032B00080F83C10084670BD022070BD000001403F
:1032C0000004004000080040000C004000400140A5
:1032D00010B5040003D094F83D0010B107E00120C0
:1032E00010BD002084F83C00204600F01FF80220AA
:1032F00084F83D00211D206801F02CFB012084F89A
:10330000460084F83E0084F83F0084F8400084F8CA
:10331000410084F8420084F8430084F8440084F8B3
:10332000450084F83D00002010BD0000006882B018
:10333000B0F1804F0ED10848016841F001010160F1
:103340000068002200F00100009011461C2002B02D
:10335000FEF792BD02B070474038024090F83D1031
:10336000012901D001207047022180F83D10016839
:10337000CA6842F00102CA6000680E4988420ED055
:10338000B0F1804F0BD00C49884208D00B498842DD
:1033900005D00B49884202D00A49884204D181688D
:1033A00001F00701062903D0016841F00101016025
:1033B0000020704700000140000400400008004069
:1033C000000C00400040014070B5044690F83C00FD
:1033D000012817D0012584F83C50022084F83D00D4
:1033E0002068826822F0770222F47F4282600868B7
:1033F000502830D00DDC20284DD005DC98B31028A3
:103400003BD148E0022070BD302844D0402834D160
:1034100039E0602828D0702806D0B0F5805F2CD025
:10342000B0F5005F29D10AE0CB68D1E9012120681D
:1034300001F0DCFA2068816841F0770109E0CB688F
:10344000D1E90121206801F0D1FA2068816841F4B6
:103450008041816011E0CA684968206801F0D8FAAB
:103460005021206807E016E0CA684968206801F02A
:10347000E0FA6021206801F0C3FA84F83D50002092
:1034800084F83C0070BDCA684968206801F0C0FA41
:1034900040212068EFE7226801461046EBE77047BD
:1034A00070B50446006801694FF00005C9438907FB
:1034B00015D4C168C943890711D4E91E01610120EF
:1034C0002077206880698007204602D0FFF7E7FF59
:1034D00004E000F098F8204600F096F82577206880
:1034E0000169C943490717D4C168C943490713D4BF
:1034F0006FF004010161022020772068806910F4D8
:10350000407F204602D0FFF7CAFF04E000F07BF8BE
:10351000204600F079F8257720680169C94309073A
:1035200016D4C168C943090712D46FF008010161BC
:10353000042020772068C0698007204602D0FFF76A
:10354000AEFF04E000F05FF8204600F05DF825775C
:1035500020680169C943C90617D4C168C943C906AF
:1035600013D46FF010010161082020772068C06932
:1035700010F4407F204602D0FFF791FF04E000F0F6
:1035800042F8204600F040F8257720680169C943D9
:10359000C90708D1C168C943C90704D1891E01619F
:1035A000204600F033F820680169C943090609D4B0
:1035B000C168C943090605D46FF080010161204646
:1035C000FFF745FE20680169C943490609D4C1686F
:1035D000C943490605D46FF040010161204600F05F
:1035E00055F820680169C94389060BD4C168C943ED
:1035F000890607D46FF0200101612046BDE87040C4
:10360000FFF726BE70BD704770470000184910B51F
:1036100088422BD1174901200023087016480178F1
:10362000491CC9B201700A2912D1144903700A78E1
:10363000521CD2B20A703C2A0AD1114A0B7014787B
:10364000641CE4B21470642C02D103700B7013700C
:103650000C490878012809D10B480278521CD2B2D3
:1036600002701E2A02D103700220087010BD0000F3
:103670005406002000000020040000200300002069
:1036800002000020060000200C0400207047FEE726
:1036900070B50D4C0025C4F898520C48016821F40F
:1036A00040410160016841F480410160C4F89C52CE
:1036B000082004F5267402F0DFFD012020600820B8
:1036C00002F0DAFD256070BD008040420004024037
:1036D00030B587B014216846FCF7D9FF154801685A
:1036E00041F080010160016801F0800105910168ED
:1036F00041F00201016000680F4D00F002000590EA
:103700000122C0212846FEF744FBC0200124CDE958
:1037100000040320CDE9024069462846FEF73EFA40
:103720000648C0F89C42C0F898422A2002F09AFD50
:1037300007B030BD303802400004024000804042F3
:1037400070B50D4C0025C4F898520C48016821F45E
:1037500040410160016841F4804101600126C4F8E4
:103760009C62082004F5267402F086FD266008207D
:1037700002F082FD256070BD0080404200040240DE
:103780002DE9F047814616480024016821F44041A4
:10379000016001680160134E254627464FF001087D
:1037A000C6F89872082002F067FDC6F89882600695
:1037B000040ED6F81C0208B1641CE4B2082002F022
:1037C0005BFD6D1CEDB2082DEAD3B9F1000F04D0FA
:1037D000FFF75EFF2046BDE8F087FFF7B1FFF9E78E
:1037E00000040240008040422DE9F04106461248A4
:1037F000016821F440410160016841F480410160A9
:103800000E4C0027C4F898723D464FF00108F009AD
:10381000C4F89C027006060EC4F89882082002F0D4
:103820002BFDC4F89872082002F026FD6D1CEDB245
:10383000082DECD3BDE8F081000402400080404236
:1038400070B50F48016821F440410160016841F4FE
:10385000804101600B4C0120C4F89C02C4F898021E
:10386000102004F5267402F007FD00256560102085
:1038700002F002FD2560BDE87040102002F0FCBCA3
:1038800000040240008040420E4810B5016821F457
:1038900040410160016841F4804101600A4C002010
:1038A000C4F89802C4F89C02102004F5267402F0B3
:1038B000E3FC012020606060BDE81040102002F0B1
:1038C000DBBC0000000402400080404270B5144898
:1038D0000024016821F44041016001680160114D3C
:1038E0000126C5F89C62082002F0C6FCC5F8986263
:1038F000082002F0C1FC07E0641CE4B2FA2C03D9F2
:10390000FFF7C2FF012070BDD5F81C020028F3D1DB
:10391000C5F89802082002F0AFFC002070BD00003E
:10392000000402400080404210B50446042100F02B
:1039300072F8204600F038F8010402D5401EC0435A
:1039400080B210BD10B50446022100F064F8204694
:10395000BDE8104000F028B810B50446FF2100F083
:103960005AF8204600F020F80149088310BD0000F5
:10397000041E002010B5FFF7ABFE4FF400420021FB
:10398000802000F02AF844F2DF420021802000F07D
:1039900024F84FF420620521802000F01EF8BDE8D5
:1039A00010408020FFF7D8BF10B50446FFF748FF4E
:1039B000641CE0B2FFF718FFFFF788FF0120FFF754
:1039C000DFFE4FF6FF7101EA00240020FFF7D8FE6A
:1039D0000443FFF759FF204610BD70B514460E464C
:1039E0000546FFF72DFF2846FFF7FEFEFFF76EFFA7
:1039F0003046FFF7F9FEFFF769FF200AFFF7F4FEF4
:103A0000FFF764FFE0B2FFF7EFFEFFF75FFFBDE8EF
:103A10007040FFF739BF70B50D460446FFF710FF41
:103A20002046FFF7E1FEFFF751FF2846FFF7DCFED7
:103A3000FFF74CFFBDE87040FFF726BFF0B500234D
:103A40000A24302537261F4611E000BFB4EB107F53
:103A500002D905EB107C01E006EB107C01F813C0E5
:103A600001EB430C00015B1C8CF80170DBB293424C
:103A7000ECD3F0BD006870472DE9FE4300250646F3
:103A8000029501950095FEF773F81648032101226F
:103A900040F8085B022380E80E00114C02A911488F
:103AA000FDF7D2FF4FF0FF38B8B921463246002368
:103AB0000220FEF71FF880B9271DFEF711F80095C8
:103AC00020680190B04202D00098401C0090241D54
:103AD000BC42F5D30098002800D04046BDE8FE83E4
:103AE00000C00008201E00202DE9F0418846054650
:103AF00000244FF480560A4F08E031463846FEF75E
:103B000040F94046FDF78EFF641CA4B2B4EB450FAC
:103B1000F3D331463846BDE8F0410122FEF739B90A
:103B2000000402402DE9F04188B014252A4647A13F
:103B300002A8FCF77AFD02A8FCF758FDC7B24FF0C7
:103B400001084748CDE900080021402380220846AB
:103B500000F01CFC00F0B8FA0024012224212046C9
:103B600000F0EEF9C4F17F00C0B20122242100F080
:103B7000E7F9AC4211D33F2000EB5500A0420CD333
:103B8000601BC0B20022242100F0DAF9281B7F302C
:103B9000C0B20022242100F0D3F900F095FA0220EF
:103BA000FDF740FF641CE4B2802CD6D3002402ADA4
:103BB000092612E004EB4400CDF8008006EB40003B
:103BC0002A5DC0B208232A2100F0ECFA00F07CFA4A
:103BD0000F20FDF727FF641CE4B2BC42EAD340F299
:103BE000DC50FDF71FFF002410E004EB440006EB5F
:103BF00040002A5DC0B208232A2100F04FFB00F0EC
:103C000063FA0F20FDF70EFF641CE4B2BC42ECD354
:103C1000002400222421204600F092F9C4F17F0004
:103C2000C0B20022242100F08BF900F04DFA0220EE
:103C3000FDF7F8FE641CE4B2402CEAD36420FDF7E3
:103C4000F1FE00F0F9F808B0BDE8F0814465736951
:103C5000676E6564206279204368656E4A4800009B
:103C60000C0000202DE9F04186B014216846FCF7D5
:103C70000EFD1E480025016841F0800101600168C9
:103C800001F080010591016841F0010101600168C6
:103C900001F001010591016841F002010160006835
:103CA000134F00F002000590012250213846FEF724
:103CB00070F80122DFF83C80160331464046FEF7DB
:103CC00068F8502001248DE83100032003906946F4
:103CD0003846FDF763FFCDE9006469464046CDE90B
:103CE0000245FDF75BFF06B0BDE8F08130380240C9
:103CF00000000240000402400B4810B50949016071
:103D000000217F22C0E90112FF22C0E903214161A5
:103D10008161FFF7A7F8002803D0BDE81040FDF748
:103D200047BD10BD00280040DC050020114810B53B
:103D30000F4901604FF4827141604FF4004181608E
:103D400000210222C0E90312012242615202826173
:103D50000822C0E90721416281620721C162FFF7A1
:103D600010F9002803D0BDE81040FDF721BD10BDBB
:103D700000300140FC05002010B586B00024174833
:103D8000009401940294039404944FF080410594AC
:103D9000016042F2CF01C0E9011440F2E731C0E90D
:103DA000031480218161FFF793FA08B1FDF700FD4C
:103DB0004FF48050009069460848FFF705FB08B1B2
:103DC000FDF7F6FC049404A904480594FFF742FAB1
:103DD000002801D0FDF7ECFC06B010BD5406002011
:103DE00010B500220F49104801F019F908B1FDF78C
:103DF000DFFC0E490C4801F005FB08B1FDF7D8FCCB
:103E00000B49094800F025FF08B1FDF7D1FC064831
:103E100001F072FB002803D0BDE81040FDF7C8BCDC
:103E200010BD0000100400209C0600206405002046
:103E300060040020FEE7FEE730B40021084B0A468C
:103E40005FF0000003EBC004401CC0B26254802845
:103E5000F8D3491CC9B20829F2D330BC00F034B9F8
:103E60008419002030B1012807D100215FF0A7009C
:103E700000F0F6BA0021A620FAE7704710B558B155
:103E8000012810D10021C02000F0EAFA0021A02072
:103E9000BDE8104000F0E4BA0021C82000F0E0FACC
:103EA0000021A120F4E710BD2DE9FE4F151ACDE940
:103EB00000104FF000085E1A47464FF0FF30002D0B
:103EC00002DD4FF0010102E003D14FF000018B460B
:103ED00002E08346C5F10005002E02DD4FF001002F
:103EE00002E003D14FF00000824602E08246C5F1B5
:103EF0000006B54201DD2C4600E03446601C4FF060
:103F00000009029017E000980C9AC1B20198C0B263
:103F100000F016F8A8443744A04504DD0198A8EB4A
:103F2000040858440190A74203DD00983F1B504409
:103F3000009009F1010902998945E4D3BDE8FE8F9B
:103F400030B5CC0801F0070301259D40EBB2064DCA
:103F500005EBC005C808285C0AB1184302E063EA13
:103F60000000C043285530BD841900202DE9F841D8
:103F70001C4601251746884606460B460095FFF766
:103F800093FF23463A46194630460095FFF78CFFCB
:103F9000641C3246E3B2414610460095FFF784FFA9
:103FA0003A46E3B2414610460095FFF77DFFBDE873
:103FB000F881000010B500F0ADF8424C002240211D
:103FC0002046FDF7E6FEC820FDF72CFD012240212A
:103FD0002046FDF7DEFE0021AE2000F041FA002170
:103FE000084600F03DFA0021102000F039FA0021C7
:103FF000B02000F035FA0021402000F031FA002115
:10400000812000F02DFA0021882000F029FA0021FB
:10401000822000F025FA0021084600F021FA002154
:10402000A12000F01DFA0021A22000F019FA0021C1
:10403000A42000F015FA0021A62000F011FA0021BA
:10404000A82000F00DFA00213F2000F009FA00211D
:10405000C82000F005FA0021D32000F001FA002169
:10406000084600F0FDF90021D52000F0F9F9002103
:10407000A02000F0F5F90021D92000F0F1F900218D
:10408000222000F0EDF90021DB2000F0E9F9002109
:10409000402000F0E5F90021312000F0E1F9002195
:1040A000AD2000F0DDF900218B2000F0D9F9FFF7F9
:1040B000C3FE0021AF2000F0D3F9BDE8104000207E
:1040C000FFF7D0BE0000024070B5114E002400BFC3
:1040D00004F1B000C0B2002100F0C2F9002108468E
:1040E00000F0BEF90021102000F0BAF95FF00005E1
:1040F00006EBC5000121005D00F0B2F96D1CEDB2C8
:10410000802DF5D3641CE4B2082CE1D370BD00000F
:1041100084190020F0B587B014216846FCF7B7FA7F
:104120001D480025016841F080010160016801F02F
:1041300080010591016841F001010160016801F011
:1041400001010591016841F002010160006801244C
:1041500000F002000590502003268DE871000F4FFB
:1041600069463846FDF71AFD01A8009480E8700002
:104170000B4C69462046FDF711FD012250213846BF
:10418000FDF707FE012211462046FDF702FEFFF76C
:10419000CDFD07B0F0BD0000303802400000024005
:1041A000000402402DE9FC4F1C460E4682468B4619
:1041B0000190082B0ED0600700D0012000EBD40046
:1041C000610810FB01F0C0B28146203AD0B20090E5
:1041D000002051E00620F7E7082C14D00C2C17D053
:1041E000102C1AD0142C1DD0182C48D10098264918
:1041F00000EBC00001EB8001002711F80850E80730
:1042000017D00B9A18E00098204900EB40000DE011
:1042100000981F4900EB4000ECE71E49009801EBB5
:104220000011E9E700981C49C0EB001001EB4001C8
:10423000E2E70B9828B3002231465046FFF780FE94
:10424000761C7F1C6D08FFB2F6B2082FD7D30AF197
:10425000010000F0FF0A082C0AD00199AAEB010026
:10426000B0EB540F04D10BF108008A4600F0FF0BAD
:1042700008F101005E46C0B280464845ACD3BDE8B7
:10428000FC8F0122D8E700006A7D0008BC650008A9
:10429000E4670008586C0008487200082DE9FC4FDC
:1042A0001C460E4682468B460190082B0ED06007B6
:1042B00000D0012000EBD400610810FB01F0C0B277
:1042C0008146203AD0B20090002037E00620F7E780
:1042D000082C38D00C2C3DD0102C40D0142C43D0BE
:1042E000182C2ED10098244900EBC00001EB80016E
:1042F000002711F80850E80704D000223146504644
:10430000FFF71EFE761C7F1C6D08FFB2F6B2082F69
:10431000F1D30AF1010000F0FF0A082C0AD001993C
:10432000AAEB0100B0EB540F04D10BF108008A4650
:1043300000F0FF0B08F101005E46C0B28046484520
:10434000C6D3BDE8FC8F009800EB40010B4800EBA2
:104350004101CDE700980A4900EB4000C6E7094952
:10436000009801EB0011C3E700980749C0EB00106B
:1043700001EB4001BCE700006A7D0008BC65000855
:10438000E4670008586C0008487200082DE9FF4FE8
:1043900082B08046019092460C464FF000098B4651
:1043A000580700D0012000EBD3000590002030E03A
:1043B000002629E00F98002510F8097009F101097D
:1043C000F80701D0109A02E0109848B30022214665
:1043D0004046FFF7B5FD641C6D1C7F08EDB2E4B2EA
:1043E000082DEDD308F10100019900F0FF08A8EBBA
:1043F0000101514505D10BF10800DDF8048000F002
:10440000FF0B761C5C46F6B25645D3D30098401C91
:10441000C0B2009005998842CAD306B0BDE8F08FBB
:104420000122D4E72DE9F8411E4615468846044688
:10443000079F0BE03346414620460097FFF7B2FE48
:10444000082E0AD004EB5600C4B26D1C2A78A2F1E3
:1044500020005E28EED9BDE8F881A41DE4B2F4E79F
:1044600073B5104C09B1012200E000220121204661
:10447000FDF78FFC0C4D002210212846FDF789FC2A
:104480006423012269460948FEF70EFE0122114607
:104490002046FDF77EFC012210212846FDF779FC1D
:1044A0007CBD00000004024000000240FC0500202A
:1044B0000148FDF761BE00005C1500202DE9F041C8
:1044C00003680D4604461E6C03EB4511D1F8080B3A
:1044D000D4F810E04FF400474FF0200C04F571724F
:1044E000BEF1010F09D0DFF898E0764539D102041A
:1044F00032D500BFC1F8087B3FE0224B5FEA007E67
:1045000004D59E4239D90004F4D436E05FEA806EC7
:1045100002D5C1F808CB30E010F0280F2DD19E4213
:1045200001D90004E6D4C5EBC50004EB8000D1F846
:10453000101BD0F80432C1F31201591AC0F814123A
:10454000D0F808121944C0F8081295B9D4F810022E
:1045500078B9012120680AE080060AD5C1F808CBA5
:1045600007E035B9D4F8100218B90021184601F057
:104570008FFBE9B22046FDF7E5FC0020BDE8F081A5
:104580000A31544F0A30544F2DE9F84F0E46C1EB13
:10459000C60100EB810481460568D4E914103C345F
:1045A000884202D90120BDE8F88F081AA16881422B
:1045B00000D20846C01C870805EB46181BE000BF68
:1045C000A0EB010AA068504500D282460AF1030020
:1045D000870899F8100000901FFA8AF3F2B2284673
:1045E000E16801F0DDFDE16801EB0A00E060A1692E
:1045F00001EB0A00A061D8F8180980B2B84205D3CF
:10460000D4E90501814201D20028D9D1D4E90501BC
:10461000884208D806F00F0101208840D5F83418E8
:104620008143C5F834180020BDE7704770B50446D3
:104630000068C168490614D44FF0FF31C160FDF72E
:10464000ADFB05464FF47A7607E000BFFDF7A6FB09
:10465000401BB04201D9032070BD2068C0684006ED
:10466000F4D5002070BD0000F8B50124142330A259
:10467000002105200094FFF7D5FE142330A219462F
:1046800005200094FFF7CEFE142331A22B210B202E
:104690000094FFF7C7FE08232FA22C21532000947B
:1046A000FFF7C0FE08232EA2372153200094FFF706
:1046B000B9FE3F2348222A2105200094FFF756FC2B
:1046C000FFF702FD0025294F260331463846FDF746
:1046D00058FB142326A22B210F200094FFF7A2FEE3
:1046E0003F2348222A2105200094FFF73FFCFFF7D3
:1046F000EBFCC820FDF796F931463846FDF741FB43
:10470000142313A22B210B200094FFF78BFE3F23D1
:1047100048222A2105200094FFF728FCFFF7D4FC4B
:10472000C820FDF77FF96D1CEDB2032DCDD3F8BD88
:10473000563A20302E303030302056200000000015
:10474000433A20302E3030206D4120200000000000
:1047500020202020202020006D41202D6176670040
:1047600030303A30303A302000000000000402407F
:10477000526573657420000038B504461248134B27
:104780000068B0FBF3F04FF47A7358430090606810
:10479000B0F5827F0DD10B46009200228021204689
:1047A00000F016F870B1606D40F0200060650320E5
:1047B00038BD009830B1401E009020688068C0432A
:1047C0000006F6D5002038BD8404002000366E01B6
:1047D0002DE9F8431E46914688460446089DFDF79C
:1047E000DDFA401B351AFDF7D9FA0746254800685F
:1047F000C0F3CB30684338E0701C37D0FDF7CEFAF9
:10480000C01BA84203D215B1009860B32CE0206809
:10481000416821F0E00141606068B0F5827F0BD112
:10482000A068B0F5004F02D0B0F5806F04D12068C9
:10483000016821F040010160A06AB0F5005F09D174
:104840002068016821F4005101602068016841F48A
:1048500000510160012084F85100002084F85000CC
:104860000320BDE8F8830025401E00902068816881
:1048700038EA010004D000214945BDD10020F0E70D
:104880000121F9E78404002070470178407841EA6B
:1048900000207047FDF788BA30B593B030216846E4
:1048A000FBF7F5FE14210CA8FBF7F1FE20480024CD
:1048B000016841F080510160006800F08050119063
:1048C0001C48016821F4404141F400410160006846
:1048D000022500F440401190092000904FF48030F0
:1048E00001900120CDE90505800507901920089069
:1048F0004FF4A870099004200A9007200B90684696
:10490000FEF7FAF808B172B6FEE70F20CDE90C0504
:104910004FF48050CDE90E4002210CA81094FEF710
:1049200019F8002801D072B6FEE713B030BD0000C0
:1049300040380240007000400248016841F47001B4
:104940000160704788ED00E00148FEF7A9BD000056
:1049500054060020F0B502681D4B1E4C9F031E4DEF
:104960001E4E984207D0B84205D0A04203D0A842BC
:1049700001D0B04204D122F0700C4A6842EA0C0225
:10498000984210D0B8420ED0A0420CD0A8420AD013
:10499000B04208D0124CA04205D0124CA04202D026
:1049A000114CA04203D122F44074CA6822434C69DE
:1049B00022F08002224302608A68C2620A68826230
:1049C000984201D10969016301214161F0BD0000F4
:1049D000000001400004004000080040000C0040BE
:1049E00000400140004401400048014010B5846887
:1049F00042EA032224F47F440A432243826010BD2A
:104A0000826822F070020A4342F007018160704719
:104A100010B5036A046A24F001040462846924F076
:104A2000F00444EA021423F00A020A438461026299
:104A300010BD10B5036A23F0100303628369046A92
:104A400023F4704343EA023224F0A00343EA011145
:104A50008261016210BD2DE9F0410C46D0F8C422FC
:104A6000D0F8BC12F9B104EB840300EB83050026F7
:104A7000AB694BB1C4EBC40702EB8702526CB3FBCA
:104A8000F2F702FB173282B1C1F81462D0F8C0020B
:104A900003692BB1D1F80802224601F50471984749
:104AA0000020BDE8F0810320FBE700231A462146E1
:104AB000AE6100F088FCF3E770B5D0F8BC42054663
:104AC0006CB100F069FBC4F80C02D5F8C012D4F840
:104AD0000402CA6804F503719047002070BD0320EA
:104AE00070BD70B50446812100F0B5FA0025258718
:104AF0000121204600F0AFFAA4F878518221204627
:104B000000F0A9FAA4F84C50A4F84E50D4F8BC0216
:104B100048B1D4F8C00204F52F744068804720687B
:104B200000F03FFE2560002070BD10B5D0F8BC42FB
:104B300084B1D0F8C01259B194F80002FF2807D010
:104B40008B6894F8012221469847FF2084F80002E0
:104B5000002010BD032010BD0A21018000487047CD
:104B60008C0400204321018000487047DC040020B1
:104B700043210180004870479804002043210180B0
:104B800000487047200500202DE9F04704464FF407
:104B9000077000F007FE05004FF0000735D0C4F89D
:104BA000BC52207C4FF010084FF40079012680B3EE
:104BB000402302228121204600F052FB2687402319
:104BC00002220121204600F04BFBA4F87861A4F8F2
:104BD0004E80082303228221204600F041FBA4F8E6
:104BE0004C60D4F8C00200688047C5F81472C5F85C
:104BF0001872207CD5F80422A8B140230121204658
:104C000000F03AFB0020BDE8F0870220C4F8BC7237
:104C1000F9E7FFE74B4602228121204600F020FB06
:104C200026874B46CCE74B46E8E710B5D0F8BC12D8
:104C300051B1027C002AD1F8042207D0402301217F
:104C400000F01AFB002010BD032010BD4FF40073CC
:104C5000F5E719B1C0F8C012002070470320704773
:104C6000D0F8BC0218B1C0F804120020704703202D
:104C70007047D0F8BC0228B1C0F81022C0F8081262
:104C800000207047032070472DE9FC410646D0F80C
:104C9000BC7200200C468DF80000ADF804000546FB
:104CA00037B1207810F0600128D0202944D102E0EB
:104CB0000320BDE8FC81E288C2B1000660780AD515
:104CC000D6F8C0128B6839469847E288072A00D97F
:104CD0000722394628E087F80002A07987F8010208
:104CE000E2883946304600F051F82AE0D6F8C01282
:104CF000607800228B682146984722E0607830B1C6
:104D000001281ED00A2809D00B2815D110E096F8EA
:104D10009C02032810D1022201A905E096F89C020A
:104D2000032809D101226946304600F049F808E01D
:104D300096F89C02032804D02146304600F01BF868
:104D400003252846B5E710B5D0F8B8220AB1526855
:104D50009047002010BD134610B50A46002100F010
:104D60008BFA002010BD134610B50A46002100F052
:104D70002AFB002010BD10B50446802100F008FB7E
:104D80002046BDE81040002100F002BB10B503230F
:104D9000C0F89432C0F858211346C0F85C210A4686
:104DA000002100F069FA002010BD10B50521C0F8FF
:104DB000941200231A46194600F05EFA002010BD36
:104DC00010B50223C0F8943282611346C2610A46CC
:104DD000002100F0F8FA002010BD10B50421C0F841
:104DE000941200231A46194600F0EDFA002010BD77
:104DF00010B50A46024903A000F0E1F8004810BDD2
:104E00006C09002043444320436F6E6669670000CD
:104E100012200880004870473004002010B50A4670
:104E2000024903A000F0CBF8004810BD6C09002037
:104E300043444320496E74657266616365000000F7
:104E400004200880004870472C04002010B50A4652
:104E5000024903A000F0B3F8004810BD6C0900201F
:104E600053544D6963726F656C656374726F6E69DC
:104E70006373000010B50A46024903A000F09FF8D2
:104E8000004810BD6C09002053544D333220566940
:104E9000727475616C20436F6D506F727400000006
:104EA00010B51A2008800A480168001D0468001D1A
:104EB0000068081809D008220649FEF7BFFD054919
:104EC000042210312046FEF7B9FD0248801E10BDB5
:104ED000107AFF1F46040020F8B504460020ADF804
:104EE000000048880D46010A08295FD2DFE801F07A
:104EF0005E0409175E5E3C45D4F8B412207C0A6853
:104F000019E0207C02260028D4F8B80205D0C16A36
:104F1000684688470146467039E0816AF8E7C0B2C2
:104F2000062843D2DFE800F0030A1014181CD4F856
:104F3000B402426805E0694690471CE0D4F8B40228
:104F4000826892B3207CF6E7D4F8B402C268F8E72E
:104F5000D4F8B4020269F4E7D4F8B4024269F0E785
:104F6000D4F8B4028269ECE7207CF0B9D4F8B80236
:104F7000416B68468847014609E0207CA8B9D4F80F
:104F8000B802016B68468847014607204870EA88E6
:104F90008AB1BDF8000040B1824200D90246ADF8A6
:104FA00000202046FFF70CFFF8BDFFE7294620460A
:104FB000FFF7E1FEF8E72046FFF70FFFF4E770B5D3
:104FC000002300281ED00025044602E06D1CEDB22F
:104FD000641C2678002EF9D1022404EB45041480C9
:104FE0001278CA545B1C0322CA5400245B1C06E0DE
:104FF000CA545B1CDAB28C54521CD3B2401C0278E7
:10500000002AF5D170BD01004FF0000004D0012945
:1050100001D0022901D0032070470120704778B1E8
:105020000023C0F8B832C0F8C032C0F8CC3209B1A1
:10503000C0F8B412012180F89C12027000F0B0B8E0
:105040000320704710B5D0F8C402FCF7AFFFBDE8ED
:105050001040FFF7D8BF10B5D0F8C402FCF780FFAE
:10506000BDE81040FFF7CFBF70B51646044621B12A
:1050700094F89C02032841D048E0D4F8941204F13B
:1050800014000025022932D1D0E902318B4206D921
:105090005A1A826031462046FFF765FE0FE09942BA
:1050A00014D14068884211D3D4F8981288420DD2A6
:1050B000002211462046FFF756FEC4F898520023FE
:1050C0001A461946204600F0D7F810E094F89C02E2
:1050D000032805D1D4F8B802C16809B12046884731
:1050E0008021204600F054F92046FFF75EFE94F838
:1050F000A00201280AD184F8A05207E0D4F8B8022F
:1051000042691AB120469047002800D1002070BDA6
:1051100010B51346044621B194F89C02032823D00D
:105120002AE0D4F8941204F5AA70032924D1D0E916
:10513000021291420AD98A1A8260C068824200D360
:10514000024619462046FFF706FE15E094F89C0239
:10515000032805D1D4F8B802016909B1204688476F
:105160002046FFF73AFE07E0D4F8B80282691AB188
:1051700020469047002800D1002010BD0020704735
:1051800010B5012180F89C12D0F8B82212B15268F3
:1051900001799047002010BDD0F8C402FCF734BF5D
:1051A00010B5017839BB15490222C1F80404C0F8D2
:1051B000C4124FF0A0400860042048600020C1E9FC
:1051C0000320C1E9062008624862C86208630846F5
:1051D000FDF7F4F908B1FCF7EBFA80210748FCF77A
:1051E0007EFE402200210548FCF77DFE8022012141
:1051F0000248FCF778FE002010BD00005C1500207E
:105200000A0601F07F01D0F8C402C1EBC10100EB36
:10521000810002D590F83E00704790F8FE0170477B
:1052200010B5D0F8B82222B190F89C32032B02D0EE
:1052300004E0032010BD126A02B19047002010BDA7
:1052400010B5D0F8B82222B190F89C32032B02D0CE
:1052500004E0032010BD526A02B19047002010BD47
:1052600010B51C461346D0F8C4022246FCF7D5FE02
:10527000BDE81040FFF7C7BE10B5D0F8C402FCF778
:10528000FCFEBDE81040FFF7BEBE70B50125044628
:1052900080F89C520020C4F894026060C4F8A40214
:1052A000D4F8B802E0B1D4F8BC1221B1426812B10E
:1052B0000021204690470022402311462046FFF758
:1052C000CFFF4026A4F864513346002280212046B7
:1052D000C4F86061FFF7C4FFA5840020266270BD9A
:1052E000032070BD90F89C12042903D190F89D1200
:1052F00080F89C120020704710B5D0F8B81221B188
:1053000090F89C22032A02D004E0032010BDC96952
:1053100001B18847002010BD01740020704710B50E
:10532000D0F8C402FDF719FABDE81040FFF76BBED4
:1053300070B5044600F2AA20054600F04DF80120A1
:10534000C4F89402B4F8B002C4F8980294F8AA021F
:1053500010F01F010AD001290ED0022912D000F04E
:1053600080012046BDE8704000F012B82946204672
:10537000BDE8704000F0C2B829462046BDE8704044
:1053800000F0E6B929462046BDE8704000F040B97B
:1053900010B5D0F8C402FCF794FEBDE81040FFF74A
:1053A00032BE10B5D0F8C402FDF7F2F9BDE81040E6
:1053B000FFF729BE90F89C1280F89D12042180F816
:1053C0009C120020704710B5D0F8C402FCF7B3FE61
:1053D000BDE81040FFF717BE70B5054611F8010B88
:1053E0002870087868704C1C2046FFF74EFA6880D9
:1053F000A41C2046FFF749FAA880A01CFFF745FA35
:10540000E88070BD38B504460020ADF8000049B111
:10541000C4F8B812C96A19B168468847C4F8CC0202
:10542000002038BD032038BD02460320D2F8B83230
:10543000002B02D01B681046184770472DE9F04139
:105440000F462C4E8978002504463170012906D973
:1054500039462046FFF78FFC0320BDE8F08194F821
:105460009C0202280CD003281DD039462046FFF7A5
:1054700082FC31782046FFF766FC03252846ECE7DE
:1054800099B320466160FFF7CFFF050004D039468D
:105490002046FFF770FCF1E72046FFF79EFC032053
:1054A00084F89C02EAE74FF00208C1B160688842C4
:1054B0001BD0C1B22046FFF746FC31782046616020
:1054C000FFF7B2FF050010D039462046FFF753FC26
:1054D00021792046FFF737FC84F89C82CEE784F8D8
:1054E0009C8220466160FFF72EFC2046FFF775FC8A
:1054F000C4E7000088040020FFF753BF2DE9F04106
:105500000A78002512F0600208D0202A01D0402A33
:1055100071D1D0F8B8229268904731E04B780022E0
:1055200001260A2B67D2DFE803F0415E6658660861
:1055300005662D29FFF7D0FC5FE004468888D8B9BE
:10554000C888C8B94888802816D200F07F0794F828
:105550009C02032810D084F89E7239462046FFF73B
:10556000DEFE2046FFF739FC1FB1022084F89C02C2
:1055700043E084F89C6240E020463CE0FFF75EFF99
:1055800005463AE0CB88012B35D190F89C32012BAF
:1055900004D0022B02D0032B2DD104E08260012223
:1055A00000F1080116E00122011D13E090F89C2291
:1055B000012A03D0022A01D0032A1CD1CA88022A58
:1055C00019D1C660D0F8A41209B10321C16002222A
:1055D00000F10C01FFF7F4FB0FE0498801290CD121
:1055E000C0F8A46211E090F89C32012B08D0022B85
:1055F00006D0032B04D0FFF7BEFB2846BDE8F081A0
:1056000049880129F9D1C0F8A422FFF7E6FBF4E7A5
:105610002DE9F0410D46044628780026097910F05E
:1056200060000BD0202801D040286DD1D4F8B802FA
:105630002946826820469047064686E06878A8B3E7
:10564000012822D003287CD194F89C02022802D0A1
:10565000032876D10BE0002973D0802971D0204631
:10566000FFF796FE80212046FFF792FE6DE06888E6
:1056700038B931B1802904D0E88810B92046FFF745
:1056800087FE2046FFF7A9FB5FE094F89C02022802
:10569000E1D0032855D16888A8BB480602D020462F
:1056A000FFF7D0FC2046FFF798FBBFE7FFE794F831
:1056B0009C020027022802D0032842D111E009B140
:1056C00080293ED1080601F07F0000EB800004EB4A
:1056D000800101D5143101E001F5AA7102220F60A9
:1056E0002BE0080601F00F0000EB800004EB8000C7
:1056F0000BD5808C40B101F07F0000EB800004EB03
:10570000800514350CE020E01BE0B0F86401C0B166
:1057100001F07F0000EB800004EB800505F5AA7521
:1057200041B1802906D02046FFF76AFD10B1012063
:10573000286000E02F60022229462046FFF740FB48
:1057400003E029462046FFF716FB3046BDE8F0810E
:1057500070B50646087800240D4610F0600003D0AE
:10576000202801D0402817D196F89C02012803D0A8
:10577000022801D003280FD1287901280CD8D6F8A7
:10578000B8028268304690470446E888204306D134
:105790003046FFF722FB02E03046FFF7ECFA2046E6
:1057A00070BD7047004870473C13002070B50A7800
:1057B000012302F00F054E78AB401B4CD0F81C586B
:1057C000012E17D045EA0343C0F81C3800EB421005
:1057D000D0F8002B12040BD4D0F8002B0B89C97819
:1057E000C3F30A031A4344EA81410A43C0F8002B79
:1057F000002070BD9BB21D43C0F81C5800EB421046
:10580000D0F800391B04F3D4D0F800390D89C978D9
:10581000C5F30A0589042B4341EA82510B43234314
:10582000C0F80039E4E7000000800010D0F800194B
:105830006FF30A01C0F80019D0F8041841F4807120
:10584000C0F804180020704770B5044606990A9EF7
:10585000049D0D98012916D0E06840F04000E060FA
:10586000204600F02BF8A16B1EB321F48031A16318
:10587000012D07D1A16841F00601A160A16841F0A6
:105880002001A16070BDA16B21F48031A163E168AA
:10589000094A1140E160E16821F44011E16001280A
:1058A00003D1E06840F48010E060204600F006F884
:1058B000DEE741F48031DAE7BFFFBDFF01220C498A
:1058C00002E0521C8A420BD80369002BF9DA026904
:1058D00042F001020261012204E0521C8A4201D915
:1058E000032070470369DB07F7D1002070470000F1
:1058F000400D030030B54C780A78012300EB4212CA
:10590000012C2CD0D2F8004B002C0BDAD2F8004B33
:1059100044F00064C2F8004BD2F8004B44F08044DD
:10592000C2F8004BD0F83C580C7804F00F0403FA8E
:1059300004F425EA0444C0F83C48D0F81C4809782F
:1059400001F00F018B4024EA0341C0F81C18D2F883
:10595000000B19490840C2F8000B002030BDD2F8F6
:105960000049002C0BDAD2F8004944F00064C2F878
:105970000049D2F8004944F08044C2F80049D0F808
:105980003C480D7805F00F0503FA05F5ADB2AC43C0
:10599000C0F83C48D0F81C48097801F00F018B4052
:1059A00099B28C43C0F81C48D2F80009034908405A
:1059B000C2F80009D1E700000078F3EF007833EC7B
:1059C000D0F8001E21F00301C0F8001ED0F8041822
:1059D00021F00201C0F8041800207047D0F8001E22
:1059E00021F00301C0F8001ED0F8041841F00201B4
:1059F000C0F80418002070472DE9F04F00250E462E
:105A00000446DDF82CC0DDF824B0109F2846294656
:105A100004EB8002C2F80411401C0F28F8D3204682
:105A2000C7B1806B20F40012A263A06B40F4002287
:105A3000A26308468846C4F8000ED4F80018204631
:105A4000C4F80018BCF1010F16D0D0F8001841F0CE
:105A5000030116E0D0F8040840F00202C4F804285C
:105A6000A06B40F40012A263A06B20F40022A2639A
:105A7000A06B20F48022DBE7D0F800180BB141F0D6
:105A80000101C0F80018102100F090FA00B10125C2
:105A9000204600F07BFA00B101254046C4F810888A
:105AA000C4F81488C4F81C8800214FF000694FF036
:105AB000904A4FF67F3314E004EB4112D2F800C94C
:105AC000BCF1000F06DA11B1C2F800A904E0C4F875
:105AD000009901E0C2F80009C2F81009C2F80839BB
